:020000040800F2
:10000000482600209D010008A5010008A70100085E
:10001000A9010008AB010008AD01000800000000C4
:10002000000000000000000000000000032A00089B
:10003000B10100080000000099210008052A00080D
:10004000B7010008B7010008B7010008B7010008B0
:10005000B7010008B7010008950500089B050008D6
:10006000B7010008B7010008B7010008B701000890
:10007000B7010008B7010008B7010008B701000880
:10008000B7010008B70100082D030008B7010008F8
:10009000B7010008B7010008B7010008B701000860
:1000A000B7010008B7010008B7010008B701000850
:1000B000B7010008B7010008B7010008B701000840
:1000C000B7010008B7010008B7010008B701000830
:1000D000B7010008B7010008B7010008B701000820
:1000E000B7010008B7010008B7010008B701000810
:1000F000B7010008B7010008B7010008B701000800
:10010000B7010008B7010008B7010008B7010008EF
:10011000B7010008B7010008B7010008B7010008DF
:10012000E5040008B7010008B7010008B70100089E
:10013000B7010008B7010008B7010008B7010008BF
:10014000B7010008B7010008B7010008B7010008AF
:10015000B7010008B7010008B7010008B70100089F
:10016000B7010008B7010008B7010008B70100088F
:10017000B7010008B7010008B7010008000000003F
:10018000B7010008B7010008DFF80CD000F07AF8DA
:1001900000480047A93A0008482600200648804742
:1001A00006480047FEE7FEE7FEE7FEE7FEE7FEE75C
:1001B000FEE7FEE7FEE7FEE7B52A00088901000832
:1001C0002DE9F05F0546002092469B46884606468C
:1001D000814640241BE0284641464746224600F01F
:1001E00041F853465A46C01A914110D31146184659
:1001F000224600F028F82D1A67EB01084F462246E8
:100200000120002100F01FF817EB00094E41201ECD
:10021000A4F10104DFDC484631462A464346BDE8E6
:10022000F09F40EA01039B0703D009E008C9121FB1
:1002300008C0042AFAD203E011F8013B00F8013BA0
:10024000521EF9D27047202A04DB203A00FA02F14C
:10025000002070479140C2F1200320FA03F31943B4
:1002600090407047202A04DB203A21FA02F0002156
:10027000704721FA02F3D040C2F1200291400843B6
:1002800019467047064C074D06E0E06840F0010350
:1002900094E8070098471034AC42F6D3FFF778FF94
:1002A000044000082440000810B50146806B026C31
:1002B00012F0500F05D0806BC26CBDE810400846AC
:1002C0001047016C41F40071016401688A6812F002
:1002D000405F17D18269AAB9CA6A12F4700F02D0BE
:1002E0008A6852050ED44A6822F020024A60016CE6
:1002F00021F480710164016CC90403D4016C41F0E4
:100300000101016400F018FA10BD10B5806B4021A6
:100310000164416C41F00401416400F026FA10BD13
:1003200010B5806B00F020FA10BD0000014800F00D
:100330001DBA000034000020454910B54A6822F477
:1003400040324A604A6843681A434A6001684A6812
:1003500022F480724A6001684A68036942EA032213
:100360004A6001684A6822F040724A6001684A683F
:1003700083681A434A6001688A6822F400628A60CE
:1003800001688A68C3681A438A60816A6FF0706284
:10039000D14201688A6822F070628A6001688A68C6
:1003A0000CD0836A1A438A6001688A6822F040523E
:1003B0008A6001688A68C36A1A4301E022F04052E9
:1003C0008A6001688A6822F002028A6001688A688D
:1003D000836942EA43028A60016A002901684A6827
:1003E0000FD042F400624A6001684A6822F4604219
:1003F0004A6001684A68174C436A04EB43331A4366
:1004000001E022F400624A600168CA6A22F47002C4
:10041000CA620168CA6A838B0F4C04EB03531A4308
:10042000CA6201688A6822F400728A6001688A6878
:10043000036B42EA43228A6001688A6822F4806280
:100440008A6001688A68406942EA8020886010BD3D
:100450000023014000E0FFFF0000F0FF01460148DB
:1004600001F0D1BAD000002010B5044801F0DDFA47
:10047000042801D0012010BD002010BDD0000020B4
:1004800082B001208DF800009DF80000012802D004
:10049000012002B07047024802B001F0DCBA00004F
:1004A000D000002038B50024009313460A460146C8
:1004B000034801F047FB00B10124204638BD00008D
:1004C000D000002038B50024009313460A460146A8
:1004D000034801F011FC00B10124204638BD0000A2
:1004E000D0000020014800F045BB0000B8210020EA
:1004F00001681823CAB2103AB2FBF3F2054B6FF34E
:100500000901032A9B5CC36500D9091D8165084662
:1005100070470000483F000810B5014600208B6975
:100520008A6A4FF0C07453B1B3F5005F15D072B151
:10053000012A0CD0022A0AD0032A09D104E01AB1F8
:10054000012A06D0022A03D1C96AC90100D50120B7
:1005500010BDC96AA142FAD010BD002AF7D0012A05
:10056000F2D0022AF3D0032AF3D010BD30B50468CC
:10057000256825F480252560046863608368402B26
:10058000036803D099600068C26030BD9A6000685B
:10059000C16030BD012000F077BC022000F074BCC7
:1005A000002200F001B8000030B50E4B05460120D6
:1005B0005C7A002C14D1587A1C54587A03EB8000D2
:1005C00045605D7A03F108002A54587A421C5A7239
:1005D000303008703A2048702F208870CC7000208E
:1005E00030BD0000382200207047000078B500249C
:1005F000009490F83C20012A19D0012280F83C2078
:100600000A6807230568092A13D9EE680A3A02EB3B
:10061000420293409E43EE600B788A680A3B03EBEC
:1006200043039A400368DD682A43DA6010E0022041
:1006300078BD2E6902EB420293409E432E610B78F7
:100640008A6803EB43039A4003681D692A431A61D1
:100650004A681F23072A13D205686E6B521E02EBED
:10066000820293409E436E630B790A885B1E92B2AE
:1006700003EB83039A4003685D6B2A435A6327E0C8
:1006800005680D2A12D22E6BD21F02EB8202934014
:100690009E432E630B790A88DB1F92B203EB830320
:1006A0009A4003681D6B2A431A6311E0EE6A0D3A03
:1006B00002EB820293409E43EE620B790A880D3B67
:1006C00092B203EB83039A400368DD6A2A43DA623D
:1006D000164B0568144A9D4206D10D68122D03D1B0
:1006E000556845F48005556005689D4218D10B6832
:1006F000102B01D0112B13D1536843F40003536026
:10070000096810290CD10A490A4A0968B1FBF2F1BB
:1007100001EB8101490000E0491E00910029FBD155
:1007200080F83C40002078BD0023014000200140BB
:100730002800002040420F000068084988420BD181
:100740000748A0F10C0102684A60406888604FF4D5
:100750000051044800F07CBC7047000000200140BC
:100760000C000020000C02407047704770B5044632
:10077000006801684268C1F34001C2F3401251B3FE
:100780004AB3216CC90603D4216C41F40071216481
:10079000816811F0405F17D1A169A9B9C16A11F44C
:1007A000700F02D0816849050ED4416821F0200104
:1007B0004160206C20F480702064206CC00403D45D
:1007C000206C40F0010020642046FFF7B5FF21684F
:1007D0006FF012000860206801684268C1F3800170
:1007E000C2F3C01289B382B3216CC90603D4216C51
:1007F00041F400512164816811F4401F1ED1816BC6
:1008000011F4401F02D08168490517D44168490599
:1008100014D4816811F0405F10D1A16971B94168A9
:1008200021F080014160206C20F480502064206C15
:10083000C00503D4206C40F0010020642046FFF77F
:10084000D3FE21686FF00C000860206801684268E0
:1008500011F0010FC2F380120ED06AB10068C00718
:100860000AD0206C40F480302064204600F046F826
:1008700021686FF001000860206801684268C1F3D8
:100880004011C2F3806200290DD0002A0BD0616CA8
:1008900041F0020161646FF0200505602046FFF71A
:1008A00064FF2068056070BD70B504004FF000055E
:1008B00003D0206C002610B107E0012070BD6664F3
:1008C00084F83C60204600F01BF8206CC00610D471
:1008D000206C20F4885040F0020020642046FFF78E
:1008E0002BFD6664206C20F0020040F001002064C3
:1008F00000E0012584F83C60284670BD7047000088
:1009000070B5064600681D4986B0884234D11C483F
:100910000025016841F4807101600068694600F4B7
:1009200080700590062000900320CDE90105154850
:1009300000F0B6FA154C1448C4E900050015A5608E
:10094000C4E90350800060618000A0618011C4E9A7
:1009500007052046656200F0DDF918B17F210CA083
:1009600002F0D2F8B463002211461220A66300F010
:10097000BFFC122000F0B0FC06B070BD00200140AA
:10098000443802400000024010640240B8210020B8
:100990002E2E2F5372632F73746D33326634787832
:1009A0005F68616C5F6D73702E630000F8B50E4672
:1009B00000210446009190F83C00012807D0012056
:1009C00084F83C0020688368DB0702D011E0022035
:1009D000F8BD836843F0010383602D482D4B006808
:1009E000B0FBF3F000EB400000E0401E0090002858
:1009F000FBD120688368DB0748D0236C40F2016597
:100A0000AB4343F4807323644068400505D5206CF4
:100A100020F4005040F480502064206CC00404D5C1
:100A2000606C20F00600606400E0616484F83C10B3
:100A3000A16B1A48184DC863A16B19480864A16BD3
:100A40001848C86421686FF0220008602068416877
:100A500041F0806141602068816841F4807181606B
:100A60002168134632464C31A06B00F0BDF968682E
:100A7000C006206802D00C49884207D1816811F075
:100A8000405F03D1816841F0804181600020F8BD62
:100A90002800002040420F0000230140A902000866
:100AA000210300080B0300080020014018B50021B5
:100AB000009190F83C20012A07D0012280F83C20C8
:100AC00002689368DB0702D011E0022018BD93682A
:100AD00043F001039360224A224B1268B2FBF3F207
:100AE00002EB420200E0521E0092002AFBD1026893
:100AF0009368DB0732D0036C40F20164A34343F4F4
:100B00008073036453685B0505D5036C23F40053BD
:100B100043F480530364036CDB0404D5436C23F07B
:100B20000603436400E0416480F83C100E4B6FF014
:100B30002201116001684A680C4C22434A605968DE
:100B40000068C90602D00A49884207D1816811F0BD
:100B5000405F03D1816841F080418160002018BD71
:100B60002800002040420F00002301402000000424
:100B7000002001402DE9F84304464FF00009CDF86C
:100B8000009063484FF41651A56D0068B0FBF1F773
:100B90002E6894F85C10082000FA01F131420FD061
:100BA00021680A6852070BD50A6822F004020A601D
:100BB00094F85C108840A860606D40F001006065AA
:100BC00094F85C104FF0010808FA01F0304208D0A8
:100BD00021684969090604D5A860606D40F00200EB
:100BE000606594F85C1004208840304208D0216889
:100BF0000968890704D5A860606D40F0040060654D
:100C000094F85C1010208840304218D021680968A0
:100C1000090714D5A86020680168490304D5006855
:100C2000000308D5A16C07E00168C90503D4016879
:100C300021F008010160216C09B12046884794F831
:100C40005C1020208840304231D021680968C906F4
:100C50002DD5A86094F8350005282068016806D0D5
:100C6000490347D5006800031DD4616C1CE021F0E6
:100C7000160101602068416921F080014161206C0A
:100C800008B9A06C20B12068016821F0080101605A
:100C900094F85C103F208840A86084F8349084F871
:100CA0003580216D1FE0E16B09B120468847606DFA
:100CB00000282BD0606DC00714D0052084F83500C3
:100CC0002068016821F0010101600098401C00903B
:100CD000B84203D820680068C007F6D184F8349081
:100CE00084F83580E16C002910D001B02046BDE8C1
:100CF000F04308470168C905D5D4016821F0100107
:100D0000016084F8349084F83580CCE7BDE8F8833E
:100D1000280000202DE9F041044600F0A3F9064622
:100D20005CB1002584F83450022084F83500206836
:100D3000016821F0010101600DE00120BDE8F081B2
:100D400000F090F9801B052805D92020606503205C
:100D500084F83500F2E720680068C007F0D1226807
:100D6000116820480140D4E901031843D4E903364F
:100D70003343184363691843A3691843E36918436D
:100D8000236A18430843616A042903D1D4E90B1389
:100D900019430843106020684069666A20F0070123
:100DA00030460E43012704280CD1A06A0643E06AAE
:100DB00040B12046FFF7B0FB20B14020606584F8C9
:100DC0003570BAE7206846612046FFF791FB94F83A
:100DD0005C203F2191408160656584F8357000207A
:100DE000ACE700003F8010F02DE9F0410446866D2D
:100DF00090F83400002501280DD0012084F834003B
:100E000094F835700020012F07D084F834000225B3
:100E10002846BDE8F0810220FBE7022784F8357000
:100E200060652046FFF7A2FB94F85C103F208840E5
:100E3000B0602068016841F01601016020684169D6
:100E400041F080014161206C20B12068016841F0CF
:100E5000080101602068016841F001010160D7E7E5
:100E600070B5044600F0FEF80546601C02D0044848
:100E70000078044400F0F6F8401BA042FAD370BD9D
:100E80001C00002070470000044910B50A680242A7
:100E900002D00860FFF7F6FF10BD0000143C0140CF
:100EA0002DE9F84FDFF87CB100224FF001084FF038
:100EB000030A4FF00F090BF1040E00BF0B6808FA8C
:100EC00002F42340A3426ED14D68022D01D0122DB1
:100ED0000ED1D50800EB850CDCF820505607F70E34
:100EE00009FA07F6B5430E69BE402E43CCF82060E0
:100EF000066855000F790AFA05FC07F0030726EA91
:100F00000C06AF40374307604E68012E05D0022E15
:100F100003D0112E01D0122E0ED18668CF6826EA9A
:100F20000C06AF40374387604668A6430C79C4F38C
:100F30000014944034434460C6688C6826EA0C066A
:100F4000AC403443C4604C68E40065D5364C256839
:100F500045F480452560246822F0030504F48044AC
:100F60000094324C2E19D6F8084895072F0F09FA2D
:100F700007F5AC432E4DA84201D1002524E02D4DAC
:100F8000A84201D101251FE02B4DA84201D1022525
:100F90001AE02A4DA84201D1032515E0284DA842A8
:100FA00002D1042510E037E0264DA84201D10525E5
:100FB0000AE0254DA84201D1062505E0234DA842AF
:100FC00001D1072500E00825BD402543C6F8085893
:100FD000DBF800405D464E689C43F60300D51C4399
:100FE0002C60DEF8004075464E689C43B60300D581
:100FF0001C432C600B4D08352C684E689C43F60250
:1010000000D51C432C60074D0C352C684E689C4362
:10101000B60200D51C432C60521C102AFFF44EAFC0
:10102000BDE8F88F003C01404438024000300140E8
:10103000000002400004024000080240000C024090
:10104000001002400014024000180240001C024040
:1010500042694A40426170470AB1816170470904A0
:10106000FBE7000001488068704700001C0000207A
:1010700070B5040004D094F83D00002510B106E0DE
:10108000012070BD84F83C50204600F075F8242003
:1010900084F83D002068016821F00101016000F042
:1010A000F7F933492268B0FBF1F15160314A6368C6
:1010B000934206D94FF4967359434FF47A73B1FBB8
:1010C000F3F12368491C1962616891420BD8490009
:1010D000B0FBF1F2C2F30B02042A01D2042019E0A2
:1010E000B0FBF1F016E0A3689BB301EBC10202EB89
:1010F0000112B0FBF2F242F48042120530D04BB341
:1011000001EBC10202EB0111B0FBF1F040F48040B1
:1011100040F400402168C861D4E907010843216810
:101120000860D4E90310084321688860D4E9050108
:1011300008432168C8602068016841F0010101602E
:101140002564202084F83D00256384F83E5000206B
:1011500070BD00E006E001EB4102B0FBF2F2CCE72B
:101160000120D7E701EB4101B0FBF1F0D0E700002F
:1011700040420F00A0860100F0B50068104987B01A
:1011800088421AD1401512240125032604278DE830
:10119000F10069460B48FFF783FE28028DE8F10055
:1011A00069460948FFF77CFE0848016841F40001E0
:1011B0000160006800F40000059007B0F0BD000079
:1011C000005C00400008024000000240403802403D
:1011D0000248816802781144816070471C00002039
:1011E0000B4810B5016841F400710160016841F4D9
:1011F00080610160016841F480710160032000F0AA
:1012000097F8002000F006F800F024F8002010BD48
:10121000003C024070B50D4D04464FF47A712878B9
:10122000B1FBF0F00A490968B1FBF0F000F03EFEB6
:1012300048B9102C07D200222146501E00F058F861
:1012400000206C6070BD012070BD00001C000020FB
:10125000280000201F4808B5016841F48041016062
:10126000006800F4804000901A48001F016841F0B7
:1012700080510160006800F080500090072000F06D
:1012800057F8002211466FF00B0000F031F80022F1
:1012900011466FF00A0000F02BF8002211466FF0A3
:1012A000090000F025F800221146501F00F020F838
:1012B00000221146101F00F01BF800221146901E5C
:1012C00000F016F80022BDE808401146501E00F05C
:1012D0000FB800004438024000F01F020121914085
:1012E0004009800000F1E020C0F8001170470000C4
:1012F000F0B40E4B1B680C46C3F30223C3F1070581
:10130000042D00D90425191D072901D2002300E06E
:10131000DB1E012606FA05F1491E214099409E4038
:10132000761E16403143F0BC00F026BF0CED00E005
:10133000064900F0070208684FF6FF03184040EA2C
:101340000220034A10430860704700000CED00E0E3
:101350000000FA052DE9F0470E46050065D0DFF8DC
:101360001481D8F80000F7B200F00F00B04207D2A5
:1013700088F80070D8F8000000F00F00B04254D197
:1013800028683D4C810712D5400703D5206840F4FA
:10139000E05020602878000703D5206840F46040C2
:1013A00020602068A96820F0F000084320602878B9
:1013B000C0072DD0304968680839012812D00228AA
:1013C00013D0032811D00968890700292DDA216874
:1013D00021F0030101432160FFF744FE814641F201
:1013E000883A0EE009688903EFE709688901ECE7AC
:1013F000FFF738FEA0EB0901514502D90320BDE8F3
:10140000F0872068696800F00C00B0EB810FEFD125
:10141000D8F80010404601F00F01B14207D907701B
:10142000006800F00F00B04201D00120E7E7287803
:10143000400705D52068E96820F4E05008432060A3
:101440002878000706D52068296920F4604040EA22
:10145000C100206000F02CF82168084AC1F3031194
:10146000515CC840064908600020FFF7D3FE002009
:10147000C5E70000003C024008380240503F000829
:101480002800002001480068704700002800002064
:101490000448054900680968044AC1F38221515C87
:1014A000C84070472800002008380240603F00080C
:1014B000154810B5006810F00C02144813D0411004
:1014C000042A0FD0082A0ED10F4C241F226823684B
:1014D00002F03F025B0207D52068C0F38810A0FB32
:1014E000010106E0084610BD2168C1F38811A1FB87
:1014F00000010023FEF764FE2168C1F30141491C8D
:101500004900B0FBF1F010BD083802400024F4009F
:101510002DE9F84F050076D02878DFF8F8B2BE4CF8
:10152000C00749D0DBF800105846C1F381010129FA
:1015300008D00068C0F3810002280AD1201D00688D
:10154000400206D52068800336D568680028E2D0BE
:1015500032E06868B0F5803F10D0B0F5A02F206869
:1015600010D020F480302060206820F4802020609B
:101570006868A0B1FFF776FD06460CE0206840F4ED
:101580008030F4E740F480202060F7E7FFF76AFD41
:10159000801B642873D820688003F7D50CE0FFF720
:1015A00061FD064605E000BFFFF75CFD801B642877
:1015B000F0D820688003F7D42878DFF860828007AD
:1015C0004FF000093ED5DBF80010584611F00C0F23
:1015D00009D00068C0F3810002280BD18D48001F9C
:1015E0000068400206D42068800715D5E868012805
:1015F00009D111E0E868B8B10120C8F80000FFF790
:1016000031FD064605E002E1FFF72CFD801B0228B4
:10161000C0D820688007F7D52068296920F0F80035
:1016200040EAC10020600DE0C8F80090FFF71AFD05
:10163000064604E0FFF716FD801B02281FD820682D
:101640008007F7D42878000722D5724E744869695C
:101650006C3671B101210160FFF704FD074604E01B
:10166000FFF700FDC01B022809D830688007F7D5B6
:101670000EE0C0F80090FFF7F5FC074605E083E0B8
:10168000FFF7F0FCC01B02287ED830688007F7D433
:101690002878400768D5DFF87CA100270AF1380ACE
:1016A000DAF80000C0000BD4DAF8001041F08051E5
:1016B000CAF80010DAF80000012700F0805000900E
:1016C000584E3068C00510D4306840F480703060E7
:1016D000FFF7C8FC009005E0FFF7C4FC0099401A32
:1016E000022851D83068C005F6D54A4EA868683639
:1016F00001280FD00528306810D020F0010030609C
:10170000306820F004003060A868B8B1FFF7AAFC88
:1017100000900FE0306840F00100F4E740F0040072
:101720003060F7E7FFF79EFC0099411A41F28830DC
:10173000814264D830688007F4D50EE0FFF792FC50
:10174000009007E0FFF78EFC0099411A41F28830C3
:10175000814254D830688007F4D42FB1DAF80010F1
:1017600021F08051CAF80010A869C0B3DBF800105E
:10177000C1F3810102294AD00228484607D0C8F89F
:101780006000FFF76FFC00E039E005463AE04746AD
:10179000C8F86000FFF766FC064604E0FFF762FC4D
:1017A000801B02282BD820688001F7D4D5E90701D7
:1017B0000843A96A1C4A490802EB01416A6A41EAE6
:1017C0008211084395F82C1040EA01611148001F6E
:1017D000016001203866FFF745FC054605E014E08E
:1017E000FFF740FC401B022809D820688001F7D58C
:1017F0000BE000BFFFF736FC401B022802D9032094
:10180000BDE8F88F20688001F4D40020F8E70120BB
:10181000F6E7000008380240003802400000474266
:10182000800E4742007000400000FFFFF0B5426E9E
:10183000120E93090B70C2F383034B7002F0030284
:101840008A70426E120CCA70B0F86420120A0A71D3
:1018500090F864204A71826E4FF6FF73120E03EA0D
:101860000212CA80826ECB88C2F3074243EA121387
:10187000CB8002F00F020A72B0F86820C2F3072290
:10188000D3094B72C2F380138B72C2F34013CB7235
:10189000C2F300130B7300264E73446C4FF40077B1
:1018A00001236CB1012C43D0026840F2FF519163D7
:1018B000816B41F08051816380F834300120F0BDAC
:1018C0009207120D0A6190F868200C6944EA8202BE
:1018D0000A61C26E0C69120E44EA92140C61C2F3E2
:1018E000C2040C7502F007024A75C26EC2F30742C9
:1018F00054098C75C2F38204CC759207520F0A7694
:10190000B0F86C20C2F307240A7E42EAD4120A76A9
:101910000A69521C42650D7EAD1CAA4042650D7AD3
:1019200003FA05F585656D0A6A43C0E917271CE0CF
:1019300090F868209206920A0A61C26E0C69120E33
:1019400044EA02220A61C26E0C69C2F307421443E0
:101950000C61B0F86C20C2F307240A69521C4FEAEC
:1019600082224265C0E916720766C4F3801201F84C
:10197000192F4FEA84624FEA52624A7010F86C2FB6
:101980004C7844EAD2144C7002F07F028A704268AC
:101990004FEA12624FEAD214CC70C2F341140C71B8
:1019A000C2F382044C714FEA82724FEA12728A715A
:1019B00042688C79C2F3074244EA92148C71C2F3F4
:1019C0004014CC710E7202F001024A728288C2F396
:1019D00007224FEAD2148C72C2F38014CC72C2F385
:1019E00040140C73C2F300144C73C2F381048C7363
:1019F00002F00302CA7300794FEA500008744B7476
:101A00004FF00000F0BD426C0A60826C4A60C26C0C
:101A10008A60026DCA60426D0A61826D4A61C26D60
:101A20008A61006EC8610020704770B50446B0F846
:101A3000500000250104206800F019FD18B1A16BC9
:101A40000143A16304E00021206800F0BCFB0546CF
:101A5000C5F3432070BD70B5040004D094F8340081
:101A6000002510B105E0012070BD2577204600F06B
:101A700037F8032084F83400204600F007F8A56307
:101A80002563012084F83400002070BDFEB50025D8
:101A9000044676200095CDE901502B462A4629467A
:101AA000206800F096FB0D4E46F8A05F206800F01D
:101AB000A2FB012535600220FFF7D2F9204600F095
:101AC000EEFE20B9204600F077FE002805D084F80D
:101AD0003450A16B0143A1630120FEBD008025426B
:101AE000F0B50068134987B0884221D1124800241C
:101AF000016841F4006101600068022500F40060A3
:101B000005904FF48850CDE9000502AA03260C2762
:101B100082E8D00069460948FFF7C2F90420CDE900
:101B2000000502AA694682E8D0000548FFF7B8F927
:101B300007B0F0BD002C01404438024000080240CC
:101B4000000C02402DE9F04F87B09A4617460E462A
:101B50000446DDF840B0FFF785FA00903EB194F8F6
:101B60003400012807D0A06B40F000500FE0A06BBC
:101B700040F000600BE04FF00008C4F83880E06DE2
:101B800007EB0A01814204D9A06B40F00070A0630A
:101B90007DE0032084F834002068C0F82C80606C5D
:101BA000012800D07F024FF40071206800F072FB22
:101BB00040F2FF59012530B12268C2F83890A16B7C
:101BC0000143A16361E04FF0FF3001904FEA4A20EA
:101BD0000290902003900220CDE90408069501A907
:101BE000206800F0DAFABAF1010F06D9022020636A
:101BF0003946206800F0C4FB04E0256339462068BC
:101C000000F0D7FB0028D7D140F22A382068416B7A
:101C100011EA080F22D1406B000409D50027206883
:101C200000F0EDFA46F827007F1C082FF7D3203686
:101C3000BBF1000F05D0FFF715FA0099411A59457D
:101C4000E4D32168C1F83890A06B40F00040A06355
:101C500084F83450032007B0BDE8F08F416BC9050C
:101C600009D5BAF1010F06D9616C032903D000F040
:101C70002FFC0028A0D12068416B090709D5C0F8C6
:101C80003890A06B40F0080028E084F83450012020
:101C9000E1E7416B890705D5C0F83890A06B40F0AB
:101CA00002001BE0416B89061AD5C0F83890A06B82
:101CB00040F0200012E000BF00F0A1FA01C6BBF125
:101CC000000F05D0FFF7CEF90099411A594507D307
:101CD0002168C1F83890A06B40F00040A063D4E7C1
:101CE0002068416B8902E7D42168C1F8389084F8F4
:101CF00034500020AFE700002DE9F04F87B09A463E
:101D000016460D460446FFF7ADF906903DB194F82E
:101D10003400012807D0A06B40F000500DE0A06B0C
:101D200040F0006009E00020A063E26D06EB0A01CC
:101D3000914204D9A06B40F00070A06390E00321B1
:101D400084F8341021688146C862606C012800D094
:101D500076024FF40071206800F09CFA40F2FF58C0
:101D6000012730B12268C2F83880A16B0143A1631A
:101D700017E0BAF1010F06D9202020633146206810
:101D800000F0C0FB05E0102020633146206800F021
:101D9000D2FB060008D02168C1F83880A06B304320
:101DA000A06384F834705BE04FF0FF3000904FEA9E
:101DB0004A200190902002904846CDE90407CDF8D2
:101DC0000C90B9466946206800F0E7F940F21A3BEA
:101DD00022E0406B40040AD55FF0000705EB870165
:101DE000206800F01FFA7F1C082FF7D320351098C9
:101DF00030B1FFF737F90699411A109881420BD399
:101E00002168C1F83880A06B3043A06384F8349017
:101E1000032007B0BDE8F08F2068416B11EA0B0F7B
:101E2000D7D0416BC9050FD5BAF1010F0CD9616C40
:101E3000032909D000F04CFB30B12268C2F8388089
:101E4000A16B0143A16309E02068416B090709D533
:101E5000C0F83880A06B40F0080014E084F834909B
:101E60000120D6E7416B890705D5C0F83880A06B03
:101E700040F0020007E0416BC0F83880C90604D585
:101E8000A06B40F01000A063E8E784F834900020D5
:101E9000BFE74FF0E0210428086903D020F00400D8
:101EA0000861704740F00400FAE7704710B5401E23
:101EB000B0F1807F01D3012010BD4FF0E0246061BC
:101EC0000F21601700F058F90020A0610720206161
:101ED000002010BD10B5FFF7E8FF10BD7FB5164814
:101EE0001449164A01604FF480314160002181603D
:101EF00081610162C0E90A2102250124C561C0E9AE
:101F0000031404634461FEF7CFFC00B1FEE70094C4
:101F100069460948CDE90145FEF768FB00B1FEE7D7
:101F20000095694604480195FEF760FB002800D043
:101F3000FEE77FBD00200140340000200100000FBB
:101F400010B504490448FEF72BFB0249491E0870EE
:101F500010BD000016000020343F00082DE9F04FAE
:101F6000704887B00024016841F0100101600168E9
:101F700001F010010591016841F004010160016860
:101F800001F004010591016841F0800101600168E0
:101F900001F080010591016841F0010101600168D3
:101FA00001F001010591016841F002010160016841
:101FB00001F002010591016841F00801016000682B
:101FC000002200F00800059008215748FFF744F868
:101FD000DFF85881012211464046FFF73DF84FF2E5
:101FE0001009002249465248FFF736F80826012515
:101FF0000096CDE9015469464B480394FEF750FF23
:102000000095CDE90154694640460394FEF748FF28
:1020100000960226CDE901640527CDE9034769460C
:102020004046FEF73DFFCDE90054DFF808A16946C0
:1020300050460294FEF734FF10200090CDE9016471
:102040000620CDE9034069465046FEF729FFE0200F
:102050000090CDE90164CDE9034769465046FEF79B
:102060001FFF4FF00408CDE90084DFF8CCB06946CB
:1020700058460294FEF714FFA8020090CDE90164CF
:10208000CDE9034769465846FEF70AFFCDF80090B0
:10209000CDE90154694626480394FEF701FF680222
:1020A000CDE90004694650460294FEF7F9FE4FF46C
:1020B000E0500090CDE901640A20CDE90340694673
:1020C0005046FEF7EDFE2020CDE900046946184891
:1020D0000294FEF7E5FE402000901220CDE90105B4
:1020E000CDE9034869465846FEF7DAFE0320009022
:1020F0001248CDE9010469460B48FEF7D1FE0022E3
:1021000011460620FFF7F4F80620FFF7E5F8002255
:1021100011460720FFF7ECF80720FFF7DDF807B0BE
:10212000BDE8F08F30380240001002400008024045
:10213000000C0240000002400004024000001110A8
:102140000B4810B5094901600A49416000214FF46C
:1021500080428160C0E9031241618161C161016215
:10216000FEF786FF002800D0FEE710BD005C0040AF
:102170007C000020A08601000907090E002806DA6D
:1021800000F00F0000F1E02080F8141D704700F10E
:10219000E02080F80014704770470A6842624A687D
:1021A0008262D1E902231A43D1E904310B43C16AA7
:1021B0001A4321F0F7011143C16200207047006803
:1021C00000F00300704708B5084414300090006820
:1021D00008BD70B50DF1100C11439CE8700023434D
:1021E000194329434268314347F6FF639A430A4340
:1021F0004260002070BD0321016000207047D0F8CC
:10220000800070470A688260D1E901231A43D1E94E
:1022100003310B43C1681A436FF30B011143C160D3
:10222000002070470968C0F880100020704710B582
:1022300086B004463720CDE90010402002900020EF
:1022400003904FF48060049069462046FFF7DAFF60
:1022500041F288323721204600F086F906B010BDE1
:1022600010B504460A4886B001432920CDE9001084
:1022700040200290002003904FF480600490694653
:102280002046FFF7BFFF204600F024FA06B010BD3D
:102290000000108010B586B004461020CDE9001073
:1022A00040200290002003904FF480600490694623
:1022B0002046FFF7A7FF41F288321021204600F0A8
:1022C00053F906B010BD000030B585B000240546B6
:1022D000009401944FF480600294CDE90340694674
:1022E0002846FFF78FFF0B484FF4FA510068B0FB08
:1022F000F1F041F288314843401E03D24FF00040D4
:1023000005B030BD696B0906F6D540F2FF50A863F1
:102310002046F5E72800002070B585B004464FF44C
:10232000D570009008204026CDE901060025C001A7
:10233000CDE9035069462046FFF764FF0F484FF48C
:10234000FA510068B0FBF1F041F288314843401E79
:1023500002D24FF000450DE0616B11F0450FF6D051
:10236000606B400702D5A663042503E0606B40065E
:1023700000D5A66305B0284670BD000028000020E7
:1023800010B586B004461220CDE90010402002901E
:10239000002003904FF48060049069462046FFF7C8
:1023A00031FF41F288321221204600F0DDF806B0FC
:1023B00010BD10B586B004461120CDE900104020B4
:1023C0000290002003904FF48060049069462046FC
:1023D000FFF718FF41F288321121204600F0C4F8BF
:1023E00006B010BD10B586B004460720CDE9002028
:1023F00040200290002003904FF4806004906946D2
:102400002046FFF7FFFE41F288320721204600F008
:10241000ABF806B010BD10B586B00446002102200E
:10242000CDE90010C020CDE902014FF48060049096
:1024300069462046FFF7E6FE204600F023F906B085
:1024400010BD10B586B004460920CDE90010C020AB
:102450000290002003904FF480600490694620466B
:10246000FFF7D0FE204600F00DF906B010BD10B504
:1024700086B004460D20CDE90010402002900020D7
:1024800003904FF48060049069462046FFF7BAFE3F
:1024900041F288320D21204600F066F806B010BDEA
:1024A00030B585B00C46054600210320CDE900106B
:1024B0004020CDE902010001049069462846FFF75B
:1024C000A1FE22460321284600F024F905B030BDC4
:1024D00010B586B0044600210C20CDE90010402044
:1024E000CDE902010001049069462046FFF78AFE0B
:1024F000034A0C21204600F037F806B010BD00005A
:1025000000E1F50510B586B004461920CDE90010AC
:1025100040200290002003904FF4806004906946B0
:102520002046FFF76FFE41F288321921204600F065
:102530001BF806B010BD10B586B004461820CDE9D2
:10254000001040200290002003904FF4806004901F
:1025500069462046FFF756FE41F288321821204690
:1025600000F002F806B010BD444B10B51B684FF4E4
:10257000FA54B3FBF4F353435B1E02D24FF0004016
:1025800010BD426B12F0450FF6D0426B520703D5D7
:1025900004218163084610BD426BD20702D001219D
:1025A000816303E00269D2B28A4201D0012010BDEA
:1025B00040F2FF5181630021FFF705FE30490842D8
:1025C00001D1002010BD002802DA4FF0007010BDCC
:1025D000410001D5402010BD810001D5802010BDF3
:1025E000C10002D54FF4807010BD010102D54FF437
:1025F000007010BD410102D54FF4806010BDC101D3
:1026000002D54FF4006010BD010202D54FF4805096
:1026100010BD410202D54FF4005010BD810202D519
:102620004FF4804010BDC10202D54FF4004010BDF0
:10263000410302D54FF4003010BD810302D54FF4A1
:10264000802010BDC10302D54FF4002010BD01044D
:1026500002D54FF4801010BD410402D54FF4001094
:1026600010BD810402D54FF4800010BD000702D5D3
:102670004FF4000010BD4FF4803010BD2800002042
:1026800008E0FFFD12494FF4FA520968B1FBF2F17C
:1026900041F288325143491E02D24FF00040704748
:1026A000426B12F0450FF6D0416B490703D5042168
:1026B000816308467047416BC90703D001218163DC
:1026C0000846704740F2FF518163002070470000C8
:1026D000280000200E494FF4FA520968B1FBF2F1CC
:1026E00041F288325143491E02D24FF000407047F8
:1026F000426B12F0450FF6D0416B490703D5042118
:1027000081630846704740F2FF51816300207047A3
:10271000280000201F4B10B51B684FF4FA54B3FB80
:10272000F4F341F2883463435B1E02D24FF0004061
:1027300010BD446B14F0450FF6D0436B5B0703D517
:1027400004218163084610BD436BDB0702D00121E1
:10275000816303E00369DBB28B4201D0012010BD2D
:1027600040F2FF5181630021FFF72DFD10F4604F0F
:1027700004D0410406D54FF4005010BD000C108069
:10278000002010BD000402D54FF4805010BD4FF45E
:10279000803010BD2800002010B5064C01202070AC
:1027A000FDF762FE18B9207820F001002070207833
:1027B00010BD00001400002010B590B004460120A8
:1027C000ADF838002068FFF7FAFC002864D0606C90
:1027D000032842D02068FFF71EFE00285AD10021AE
:1027E0002068FFF7F0FC606704212068FFF7EBFC2E
:1027F000A06708212068FFF7E6FCE0670C2120684D
:10280000FFF7E1FCC4F88000606C032825D00EA916
:102810002068FFF745FE00283CD1606C03281CD0DF
:10282000BDF83800206501042068FFF70AFE002883
:1028300030D100212068FFF7C6FC606604212068C3
:10284000FFF7C1FCA06608212068FFF7BCFCE0662A
:102850000C212068FFF7B7FC206704212068FFF7F0
:10286000B2FC000DE06403A92046FEF7DFFFB4F8D8
:102870005000002302042068FFF7B4FD002809D1AE
:1028800004F1100007C88DE8070094E80F00FFF777
:10289000A0FC002010B010BD4FF08060FAE72DE9D9
:1028A000F8430025044600950068FFF70DFD002859
:1028B0001AD12068FFF730FD4FF080784FF6FF7691
:1028C000D8B14FF08057A5640098411C0091B042E8
:1028D0001AD000212068FFF7AAFC20B90021206847
:1028E000FFF7BEFC10B13846BDE8F8830021206830
:1028F000FFF769FCC00FE7D01FE00127A76400982D
:10290000411C0091B04201D14046EDE70021206812
:10291000FFF78DFC0028E7D14FF080412068FFF7DA
:102920009FFC0028E0D100212068FFF74CFCC10F7C
:10293000E5D0400001D5676400E065640020D3E77E
:1029400070B5064C054601202070FDF799FD18B9B9
:102950002846FFF721FF2070207870BD140000206A
:1029600010B5124888B014460078C00702D0032082
:1029700008B010BDC1B1012905D0022908D0032932
:102980000CD00420F4E76846FDF768FD06980AE0DD
:102990006846FDF763FD0798208005E06846FDF76F
:1029A0005DFD0798400A20600020E1E71400002048
:1029B00070B51D46164608460124A31E2A46314618
:1029C000FDF770FD28B900BFFDF74EFD0028FBD1D3
:1029D0000024204670BDFFF7DFBE000070B51D4625
:1029E000164608460124A31E2A463146FDF76AFD15
:1029F00028B900BFFDF738FD0028FBD10024204690
:102A000070BD704710B5FEF7E3FBBDE81040FFF75F
:102A100061BA000030B5254893B00025016841F047
:102A200080510160006800F08050119020480168DA
:102A300041F4804101600068022400F4804011905C
:102A400001200090000401908001CDE9064008209B
:102A500008904FF4A870CDE9090407200B90684650
:102A6000FEF756FD00B1FEE70CA90F2081E831000A
:102A70004FF4A0500F904FF48050109005210CA8F7
:102A8000FEF768FC00B1FEE7FEF7FCFC4FF47A713C
:102A9000B0FBF1F0FFF70AFA0420FFF7FAF9002281
:102AA0001146501EFEF724FC13B030BD40380240E2
:102AB000007000401048016841F4700101600F4847
:102AC000016841F0010101600C4A002108321160E7
:102AD00002680B4B1A400260031D0A4A1A60026822
:102AE00022F48022026005480C3001600249580639
:102AF000803908607047000088ED00E0003802402F
:102B0000FFFFF6FE10300024FEE702E008C8121FA7
:102B100008C1002AFAD170477047002001E001C1C6
:102B2000121F002AFBD1704710B504460020E07048
:102B3000401E2063204601F072F808B1042010BD49
:102B400004F2322000F0AAFFA0F52A41553901D045
:102B5000032010BD94F83400E92805D0EB2814D1E7
:102B600094F83600902810D104F16A0000F08BFF31
:102B70000749B1EB002F06D004F1860000F083FF77
:102B80000449884201D1002010BD022010BD000080
:102B90000046415446415433F0B50022144D1346CB
:102BA00005EB021426685EB10768BE4209D166686B
:102BB0008768BE4205D1A4684669B44204D000E0EB
:102BC0000123521C022AEBD3022A01D069B904E086
:102BD0004BB9022907D01220F0BD05EB0210808905
:102BE000B0F5807F01D00020F0BD1020F0BD0000C6
:102BF0001822002030B50021054B0C4603EB0112D2
:102C00001568854200D11460491C0229F6D330BDF5
:102C1000182200200268C06A938952895343B1FB8D
:102C2000F3F1001D04C81AB1914203D3891AF8E7E1
:102C3000002070470068084470478269891E921E10
:102C40008A4201D800207047C26A408901FB0020F7
:102C500070472DE9F04105680F00804606D000F06E
:102C60002AFE022809D20120BDE8F0812E6916B1A2
:102C7000A869B04207D8012605E0411CF4D0A96933
:102C80008142F1D83E463446A869641CA04202D86D
:102C90000224022E0AD32146404600F00CFE38B131
:102CA0000128E1D0411CDFD0B442EDD10020DBE7A8
:102CB0004FF0FF3632462146284600F0C9FF30B9B2
:102CC00057B122463946284600F0C2FF20B10128FC
:102CD0000FD001242046C7E72C61D5E90501891EE4
:102CE000884201D8401E6861287940F001002871AF
:102CF000F0E73446EEE700002DE9F0410E462430BF
:102D00000D6804460B22202100F082FF00200146BE
:102D100008272A5C401C202A12D92F2A0BD05C2AB3
:102D200009D02E2A01D0B94214D30B2F22D02E2A3B
:102D300020D10CE0401C2B5C2F2BFBD05C2BF9D05E
:102D400028443060B1B12078E5281FD020E0082168
:102D50000B27DEE7802A03D3114B1A4412F8802C8C
:102D600010A300E05B1C93F800C0BCF1000F04D07E
:102D70009445F7D10620BDE8F081A2F16103192B3B
:102D800001D8203AD2B26254491CC2E70520207013
:102D9000202A01D8042000E00020E0720020EAE7A9
:102DA000683F0008222A2B2C3A3B3C3D3E3F5B5DAE
:102DB0007C7F0000401E022812D20A4901EB00115C
:102DC0008889B0F5807F05D008B1401E80B2888127
:102DD00010B103E00020FAE70020086000207047EF
:102DE00002207047182200202DE9F04104460021FE
:102DF000056800F0DFF8002826D12846E16900F0D8
:102E00000EFF02001FD1206A017899B1C17A01F04A
:102E10003F01A171C17A09070FD404F124010B26E7
:102E200010F8013B11F8017BDB1B761E04D0002B50
:102E3000F6D002E0042206E02BB10021204600F08B
:102E400005F80200D9D01046BDE8F0812DE9F04721
:102E5000054647690468C0698946203710B1B7F54F
:102E6000001F02D30420BDE8F087A189B7FBF1F26F
:102E700001FB127100295FD1401CE861A9694FF084
:102E8000000819B3A0896289B7FBF0F0521E104206
:102E900052D1284600F00FFD064601281FD9701CAC
:102EA00036D0A069B04241D8B9F1000F12D02846FF
:102EB000A969FFF7CEFE06000FD0012E0FD0701CBF
:102EC00026D0204600F0F4FF10BB0AE02089B0EBCA
:102ED000571F31D8C5F81C80C4E70720C3E702207C
:102EE000C1E7A289002104F1340000F091FE4FF007
:102EF000000831462046FFF7A0FE4FF0010920638D
:102F00000DE000BF84F80390204600F0D1FF08B127
:102F10000120A8E7206B08F10108401C20636189AB
:102F20004145EFD8216BA1EB0800206331462046D4
:102F3000AE61FFF782FEE8616F61A089B7FBF0F137
:102F400000FB117020443430286200208BE770B5FC
:102F500004460021066800F02DF80DE03046E169D6
:102F600000F05DFE50B9206A0078E52809D040B134
:102F700001212046FFF76AFF0028EFD0042807D080
:102F800007E03046E16900F04AFE050003D00FE09B
:102F9000072005460CE020220021206A00F038FEC0
:102FA0000B2204F12401206A00F028FE0120F070B9
:102FB000284670BD2DE9F04104680F460646B1F57C
:102FC000001F3CD2F8063AD17761B56825B9207860
:102FD000032806D3A56A25B16089A18900FB01F801
:102FE00012E02089B0EB571F29D9A06A12E03046C1
:102FF00000F061FC0546401C1FD0022D1FD3A069C4
:10300000A8421CD9A7EB080747452946EFD220461E
:10301000FFF713FEC6E9065088B1A189B7FBF1F1AD
:103020000844F061A089B7FBF0F100FB1170204467
:10303000343030620020BDE8F0810120FBE702203F
:10304000F9E70000084910B50B5C002253B90122D2
:103050000A540A1801EB8000127A40680168104691
:1030600088470246104610BD3822002030B4054C77
:10307000231804EB80001B7A406804691846A446B4
:1030800030BC60473822002030B4054D2C1805EBC9
:103090008000247A406885682046AC4630BC604792
:1030A00038220020044A111802EB8000097A406897
:1030B00042680846104700003822002030B4054D11
:1030C0002C1805EB8000247A4068C5682046AC4681
:1030D00030BC60473822002038B5044600F04AF979
:1030E00000280CD16946204600F00BFF002806D1CD
:1030F0002069FFF75FFE002801D10021216038BD63
:103100002DE9F74181B0904602980090684600F0A2
:1031100048FC040003D50B2004B0BDE8F0810D4E3F
:10312000002756F824501DB12846FFF763FD2F7085
:103130000198002800D0077046F8240002D0B8F1AA
:10314000010F01D00020E7E7002201A902A800F04A
:1031500031FAE1E7300000202DE9F74394B0050093
:103160000BD002F03F063246694615A800F022FA5D
:1031700004004FF0000804D0F3E0092017B0BDE8C8
:10318000F0830098049004A8159900F057FB040000
:103190000ED19DF83F00000601D5062408E0700816
:1031A00001D0012100E0002104A8FFF7F5FC04464E
:1031B00016F01C0F5DD04FF00109C4B1042C10D1E2
:1031C00000206B4902E0401C022804D201EB0012EF
:1031D0001268002AF7D1022807D004A8FFF7B7FE2B
:1031E000044646F008065CB1BBE01224B9E09DF845
:1031F000160010F0110F47D1700701D50824B0E078
:10320000300747D500F0CBFB07460C9839460E3007
:1032100000F0FEFD0C983946163000F0F9FD0C98D0
:103220002021C1720C99009800F01AFC0746002278
:103230000C99009800F0D8FD0C9800211C3000F08B
:10324000E7FD009981F8039017B3D1F83090002280
:10325000394604A800F08EFD040009D149460098C3
:1032600000F0DDFC04000098A7F1010707610DD014
:1032700077E0ECBB9DF81600C10601D5042470E090
:10328000B10703D5C00701D007246AE0300701D594
:1032900046F040060098006B68620C98A8627008BF
:1032A00001D0012100E0002104A800F099FB286171
:1032B000C0B30C99009800F0D3FBA8600C981C30A8
:1032C00000F0E1FBC5F82C80E860009929600099C6
:1032D00005F130004FF48052C988A9802E7585F819
:1032E0001580C5F8208000218146C5F8188000E0CF
:1032F00037E000F08DFCB00635D5EE689EB3AE61C8
:103300000098A9684789808947430FE0284600F064
:10331000D2FA0146012800D80224481C03D0F61B2B
:1033200024B105E021E00124F61B01E0BE42EDD806
:10333000E961B4B900988289B6FBF2F302FB13622B
:103340008AB1FFF77AFC80B1009901238A89B6FB24
:10335000F2F202442A6248784946FFF795FE10B11E
:103360000124C5F80080204608E70224F9E70000A0
:1033700018220020F8B50446694600F0C2FD002876
:103380000ED1217D4A060BD508060ED50098226A7B
:103390000123407804F13001FFF790FE08B10120CD
:1033A000F8BD207D00F07F00207500F0F8FA064699
:1033B000616A009800F033FC0028F1D1A56A294623
:1033C000E87A40F02000E872A268206800F00CFD66
:1033D00005F11C00E16800F01BFD314605F1160007
:1033E00000F016FD002105F1120000F019FD009813
:1033F0000121C17000F018FD217D01F0BF01217590
:10340000F8BD2DE9F04F884689B000211960994632
:103410001546044604A900F074FD002806D1607D1D
:10342000002803D1207D800703D4072009B0BDE820
:10343000F08FA069012742194FF0020A04F1300B06
:10344000824200D2C543ACE00498A1698289B1FBF5
:10345000F2F302FB1313002B79D1B1FBF2F6408992
:10346000401E064018D129B1E06A38B12046FFF766
:10347000D1FB07E0A06838B9002100E0E1692046EF
:10348000FFF7E7FB00287ED001282FD0411C58D041
:10349000E061A16801B9A060207D00060BD5049809
:1034A000226A012340785946FFF708FEC0BB207D01
:1034B00000F07F002075E1690498FFF7BEFBA8B11A
:1034C0003044009004988189B5FBF1F1029141B339
:1034D000721841898A4201D9891B0291407841467C
:1034E000029B009AFFF7EAFDD0B903E084F815A02B
:1034F00002209BE7216A0098081A029988420AD2A2
:1035000004998A8900FB0281584600F077FB207DF0
:1035100000F07F00207504988689029846432FE0CA
:103520000FE0FFE7226A00998A420ED0E268A169A3
:1035300091420AD2407801235946009AFFF7A4FD30
:1035400018B16775012071E701E0009820620498C6
:10355000A1698089B1FBF0F200FB1212861AAE421B
:1035600000D92E46B1FBF0F200FB12102044324687
:103570004146303000F042FB207D40F08000207555
:10358000B044A06900E00FE03044A061E1688842E7
:1035900000D80846E060D9F800008119AD1BC9F8D1
:1035A0000010002D7FF450AF207D40F040002075CA
:1035B00000203BE72DE9FF41002790460E460F60B3
:1035C00000F0EFF9050003D50B2004B0BDE8F08151
:1035D000974850F825409CB13460207808F0FE06EA
:1035E00020B16078FFF75EFDC1070BD02770E8B20D
:1035F000B8466070FFF726FDC10708D00320E4E756
:103600000C20E2E70EB1400704D40020DDE71EB134
:10361000400701D50A20D8E7607804F10C020221A6
:10362000FFF724FDF0BBA089A0F50071B1F5606F34
:103630003FD8411E08423CD1002631462046FFF7C4
:1036400073FA022822D100254FEA0D0704EB05107A
:1036500090F8F61100F5F97019B1083000F013FA7E
:1036600000E0002047F825006D1C042DEED3002556
:1036700057F8256036B131462046FFF755FA022843
:1036800001D203E003206D1C042DF1D3042810D0D7
:10369000022878D204F13F0000F000FAA1898842A4
:1036A00071D100E005E004F14A0000F0F7F910B133
:1036B00005E0012089E704F1580000F0E4F9E06139
:1036C00094F84450A570012D01D0022D5BD14543E3
:1036D00094F841006081E8B3411E084253D104F1DF
:1036E000450000F0DBF92081A1894909B0FBF1F226
:1036F00001FB120070BB04F1470000F0CFF9070096
:1037000004D104F1540000F0BEF9074604F1420070
:1037100000F0C4F9010036D0A08923894009B3FB29
:10372000F0F04A19024497422DD3B81A6789B0FBCA
:10373000F7F078B103274FF6F57C604500D80227F3
:1037400040F6F57C604500D801273244801C3144A6
:10375000E26200E017E0A061C4E90861032F14D021
:103760008BB12944A162022F20D000F0010100EBAF
:10377000400001EB5000A189401E0844B0FBF1F06D
:10378000E169884214D90D201FE704F15E0000F0C2
:1037900085F90028F7D120890028F4D104F16000D0
:1037A00000F071F9A062A0698000E4E74000E2E760
:1037B0004FF0FF306061206180202071032F2CD1F9
:1037C00004F1640000F06AF9012826D1711C20463A
:1037D00000F025FA08BB84F8048004F2322000F0DF
:1037E0005DF9A0F52A41553917D104F1340000F0F4
:1037F0004AF91049884210D104F5067000F043F9E7
:103800000D49884209D104F5077000F03CF9606168
:1038100004F5087000F037F9206105482770001F93
:103820000188491C0180E1802046FFF7E3F9ECE6BE
:1038300030000020525261417272416173B50446FA
:103840000568019801E0401C019001782F29FAD009
:103850005C29F8D00021A16001980078202806D2C8
:10386000802084F82F002046FFF7A4FB7CBD01A92F
:103870002046FFF741FA0028F8D12046FFF7B4FAB6
:1038800094F82F1028B10428F0D14907EED4052070
:103890007CBD4907FCD4A079C006F8D5A989606928
:1038A000B0FBF1F201FB120041192846343100F05F
:1038B000D7F8A060DBE72DE9F04104680D46022946
:1038C0000BD3A069A84208D920784FF0FF36012811
:1038D00007D0022834D0032849D001263046BDE85D
:1038E000F081A08905EB5507B7FBF0F0616A014450
:1038F000204600F094F90028F0D1A089B7FBF0F140
:1039000000FB11717F1CB7FBF0F0214491F834806B
:10391000616A0144204600F082F90028DED1A089C6
:10392000B7FBF0F100FB1170204490F8341048EA26
:103930000120E90701D00609D0E7C0F30B06CDE767
:10394000A089616A4008B5FBF0F00144204600F010
:1039500066F90028C2D1A1896800B0FBF1F201FB31
:1039600012002044343000F099F80646B6E7A089EA
:10397000616A8008B5FBF0F00144204600F04FF981
:103980000028ABD1A189A800B0FBF1F201FB120025
:103990002044343000F077F820F070469EE7002095
:1039A000704710B504464FF0FF302268002A13D04C
:1039B000114600E0491C0B78212B0ED33A2BF9D18C
:1039C00012F8013B303B0A2B06D28A4204D1002B6D
:1039D00002D1491C1846216010BD002010BD000016
:1039E000F0B502461D4BD2F80050002003EB001446
:1039F0002668AE4207D166689768BE4203D1A468C4
:103A00005669B44202D0401C0228EFD3022814D1D8
:103A1000002002E0401C022804D203EB00142468BA
:103A2000002CF7D102280ED003EB00142560956816
:103A300065605269A2600022A281002903EB001197
:103A4000898902D019B10020F0BD491C01E04FF472
:103A5000807103EB0012401C9181F0BD1822002000
:103A600070B506460D4601F11A0000F017F804463D
:103A70003078032805D105F1140000F00FF844EA6E
:103A80000044204670BDC178827842EA0121427824
:103A9000007842EA012140EA01207047417800782D
:103AA00040EA01207047000094B0FDF799FBFEF753
:103AB000B1FFFEF753FA37480024016841F4800152
:103AC00001600068224600F4800000902146382002
:103AD000FDF70EFC3820FDF7FFFBFEF7FFF9FEF7C0
:103AE0002FFBFEF72DFA2D482B490122C0E90014C7
:103AF0008460C46003210461C0E905412849843021
:103B0000FFF7FEFAB0B9274C012211032046FDF75A
:103B1000A3FA25A010AB07C883E807000A2210A962
:103B20002448FFF719FB4FF00102B8B151032046BA
:103B3000FDF792FA194802221F499C38FCF736FF1C
:103B400016489C38FCF7B2FF4FF47A7413489C383F
:103B5000FCF7ACFF2046FDF783F9F7E74FF480410F
:103B60002046FDF779FA402214A16846FCF759FB7C
:103B7000114B3E220C3B69460E48FFF742FC20B930
:103B80000122D1032046FDF767FA0A48FFF7A4FA9D
:103B9000D0E7000030380240002C0140D000002067
:103BA00016000020000C02404C6F67322E637376C3
:103BB00000000000881100200C0000205472616396
:103BC0006B696E672D4C6F6720766F6D2031372ED5
:103BD00030312E323031393B3B3B0A204461746531
:103BE0002F54696D653B4C6F636174696F6E3B5414
:103BF000656D703B4E6F74650A000000002A05D0A9
:103C000011F8013B00F8013B521EF9D1704700004A
:103C10005FFA81F100F8011B521EFBD1704770B5AD
:103C20000446006B0D460026A8420FD0204600F047
:103C30003FF906000AD1607801232A4604F13401D5
:103C4000FFF722FA08B1751E01262563304670BDC4
:103C50002DE9F047022617460D46044602297DD37A
:103C6000A069A8427AD920784FF00109012804D030
:103C7000022840D003287AD154E0A18905EB5508E9
:103C8000B8FBF1F0616A01442046FFF7C8FF060067
:103C90006DD1A189B8FBF1F201FB128020443430D0
:103CA00008F10108E90704D00178FAB262F31F11A4
:103CB00000E03946017084F80390A189B8FBF1F067
:103CC000616A01442046FFF7AAFF06004FD1A1898F
:103CD000B8FBF1F201FB128020443430E90702D036
:103CE000C7F3071105E00178C7F3032201F0F001E3
:103CF0001143017039E0A089616A4008B5FBF0F01A
:103D000001442046FFF78BFF060030D1A1896800EF
:103D1000B0FBF1F201FB12002044B9B2343000F0E4
:103D20007FF822E0A089616A8008B5FBF0F00144C9
:103D30002046FFF774FF060019D1A089AD00B5FB3E
:103D4000F0F100FB115020443430FFF79CFE67F384
:103D50001B000146A089B5FBF0F200E007E000FB84
:103D600012502044343000F053F884F80390304669
:103D7000BDE8F0872DE9F041056813460E46074679
:103D800002292DD3A869B0422AD93BB14FF0FF32A6
:103D900019462846FFF75CFF00281FD131463846F8
:103DA000FFF789FD040018D0012C19D0601C19D030
:103DB000002231462846FFF74BFF00280ED1D5E9F7
:103DC0000510821E914205D2491C6961297941F092
:103DD000010129712646B042E0D80020BDE8F081FB
:103DE0000220FBE70120F9E770B50C4606461546B0
:103DF00091B204F11A0000F013F83078032806D1CC
:103E0000290C04F11400BDE8704000F009B870BD41
:103E10000170090A4170090A8170090AC17070476E
:103E20000170090A4170704770B5044600F040F80F
:103E3000050036D1207803282CD12079012829D1FA
:103E400004F13400A28900210646FFF7E1FE4AF69C
:103E5000552104F23220FFF7E3FF13493046FFF704
:103E6000D7FF124904F50670FFF7D2FF04F507707B
:103E70006169FFF7CDFF04F508702169FFF7C8FFFE
:103E8000226A0123521C226360783146FFF716F93B
:103E900000202071002260781146FFF7E7F800B19A
:103EA0000125284670BD0000525261417272416185
:103EB0002DE9F0410446C0780027F8B1256B04F1E4
:103EC0003401607801232A468846FFF7F7F808B1E5
:103ED000012713E00020E070606AE169281A884237
:103EE0000CD2A67808E0E0690123054460782A46F0
:103EF0004146FFF7E3F8761E022EF4D23846BDE8BD
:103F0000F08170B50D4604000CD0206850B10178E6
:103F100041B1C188A288914204D14078FFF7C2F82C
:103F2000C00703D000202860092070BD20682860E9
:103F3000002070BD41290008D7290008B1290008D8
:103F4000DD29000861290008000610160006101679
:103F50000000000000000000010203040607080939
:103F60000000000001020304435545414141414323
:103F700045454549494941414592924F4F4F555515
:103F8000594F554F9C4F9E9F41494F55A5A5A6A7F8
:103F9000A8A9AAABACADAEAFB0B1B2B3B441414188
:103FA000B8B9BABBBCBDBEBFC0C1C2C3C4C5414124
:103FB000C8C9CACBCCCDCECFD1D145454549494959
:103FC00049D9DADBDCDD49DF4FE14F4F4F4FE6E8FF
:103FD000E85555555959EEEFF0F1F2F3F4F5F6F7CF
:103FE000F8F9FAFBFCFDFEFF0100040010004000A0
:103FF000000100020000010002000400080010009F
:1040000020000000244000080000002034000000D0
:104010000A2B000858400008340000201426000035
:104020001A2B000800000000000000000000000043
:10403000000000000000000001000000000000007F
:104040000100000010000000000000000024F40047
:08405000000000000000000068
:040000050800018965
:00000001FF
