:020000040800F2
:10000000602E00209D010008A5010008A70100083E
:10001000A9010008AB010008AD01000800000000C4
:10002000000000000000000000000000BF2C0008DD
:10003000B10100080000000055240008C12C000890
:10004000B7010008B7010008B7010008B7010008B0
:10005000B7010008B7010008790500087F0500080E
:10006000B7010008B7010008B7010008B701000890
:10007000B7010008B7010008B7010008B701000880
:10008000B7010008B7010008B7010008B701000870
:10009000B7010008B7010008B7010008B701000860
:1000A000B7010008B7010008B7010008B701000850
:1000B000B7010008B7010008B7010008B701000840
:1000C000B7010008B7010008B7010008B701000830
:1000D000B7010008B7010008B7010008B701000820
:1000E000B7010008B7010008B7010008B701000810
:1000F000B7010008B7010008B7010008B701000800
:10010000B7010008B7010008B7010008B7010008EF
:10011000B7010008B7010008B7010008B7010008DF
:10012000B7010008B7010008B7010008B7010008CF
:10013000B7010008B7010008B7010008B7010008BF
:10014000B7010008B7010008B701000849240008FA
:10015000B7010008B7010008B7010008B70100089F
:10016000B7010008B7010008B7010008B70100088F
:10017000B7010008B7010008B7010008000000003F
:10018000B7010008B7010008DFF80CD000F07AF8DA
:1001900000480047A9520008602E0020064880470A
:1001A00006480047FEE7FEE7FEE7FEE7FEE7FEE75C
:1001B000FEE7FEE7FEE7FEE7712D00088901000873
:1001C0002DE9F05F0546002092469B46884606468C
:1001D000814640241BE0284641464746224600F01F
:1001E00041F853465A46C01A914110D31146184659
:1001F000224600F028F82D1A67EB01084F462246E8
:100200000120002100F01FF817EB00094E41201ECD
:10021000A4F10104DFDC484631462A464346BDE8E6
:10022000F09F40EA01039B0703D009E008C9121FB1
:1002300008C0042AFAD203E011F8013B00F8013BA0
:10024000521EF9D27047202A04DB203A00FA02F14C
:10025000002070479140C2F1200320FA03F31943B4
:1002600090407047202A04DB203A21FA02F0002156
:10027000704721FA02F3D040C2F1200291400843B6
:1002800019467047064C074D06E0E06840F0010350
:1002900094E8070098471034AC42F6D3FFF778FF94
:1002A0002458000844580008454910B54A6822F40B
:1002B00040324A604A6843681A434A6001684A68A3
:1002C00022F480724A6001684A68036942EA0322A4
:1002D0004A6001684A6822F040724A6001684A68D0
:1002E00083681A434A6001688A6822F400628A605F
:1002F00001688A68C3681A438A60816A6FF0706215
:10030000D14201688A6822F070628A6001688A6856
:100310000CD0836A1A438A6001688A6822F04052CE
:100320008A6001688A68C36A1A4301E022F0405279
:100330008A6001688A6822F002028A6001688A681D
:10034000836942EA43028A60016A002901684A68B7
:100350000FD042F400624A6001684A6822F46042A9
:100360004A6001684A68174C436A04EB43331A43F6
:1003700001E022F400624A600168CA6A22F4700255
:10038000CA620168CA6A838B0F4C04EB03531A4399
:10039000CA6201688A6822F400728A6001688A6809
:1003A000036B42EA43228A6001688A6822F4806211
:1003B0008A6001688A68406942EA8020886010BDCE
:1003C0000023014000E0FFFF0000F0FF014601486C
:1003D00001F0ADB9E800002010B5044801F0B9F90A
:1003E000042801D0012010BD002010BDE80000202D
:1003F00082B001208DF800009DF80000012802D095
:10040000012002B07047024802B001F0B8B9000004
:10041000E800002038B50024009313460A46014640
:10042000034801F023FA00B10124204638BD000042
:10043000E800002038B50024009313460A46014620
:10044000034801F0EDFA00B10124204638BD000058
:10045000E800002070B50546D0F87403C46994F82C
:100460004E0003281BD0042818D1217B284603F016
:100470000EF9012812D1217B284603F0F3F8A16A76
:1004800080B2814213D0628B824210D2091AA162DB
:10049000216A08442062032084F84E0070BD237B4B
:1004A000628B2846216A02F0A7FC0420F4E70020B2
:1004B00084F84E00284602F0FBFD70BDF8B50646F4
:1004C000D0F874030125C46994F84D0001280AD0BE
:1004D000022807D1617B304603F0D9F8012811D0FA
:1004E00002281AD0F8BD228B606A0095637B904287
:1004F00000D882B23046E16902F08EFC022084F816
:100500004D00F8BD208B626A0021824208D9121A80
:100510006262E3691844E06103D084F84D50F8BD8D
:10052000616284F84D10304602F0C5FDF8BD000050
:1005300010B500224FEA020100EB8203521CC3F8FF
:100540007C130F2AF8D300224FF400738418521C36
:1005500084F81C119A42F9D3017041700122827013
:10056000C0F8B813027640238371417680F81C13DB
:1005700080F81D23002010BD012000F039B90220B1
:1005800000F036B9002200F001B8000030B50E4B83
:10059000054601205C7A002C14D1587A1C54587AF4
:1005A00003EB800045605D7A03F108002A54587A15
:1005B000421C5A72303008703A2048702F208870E0
:1005C000CC70002030BD000050280020A122027411
:1005D000212242740022428282820722C28202F0D9
:1005E0008EBD000078B50024009490F83C20012ACC
:1005F00019D0012280F83C200A6807230568092ADF
:1006000013D9EE680A3A02EB420293409E43EE6031
:100610000B788A680A3B03EB43039A400368DD6862
:100620002A43DA6010E0022078BD2E6902EB420214
:1006300093409E432E610B788A6803EB43039A40F4
:1006400003681D692A431A614A681F23072A13D2C7
:1006500005686E6B521E02EB820293409E436E63EE
:100660000B790A885B1E92B203EB83039A400368FE
:100670005D6B2A435A6327E005680D2A12D22E6B60
:10068000D21F02EB820293409E432E630B790A88AD
:10069000DB1F92B203EB83039A4003681D6B2A436E
:1006A0001A6311E0EE6A0D3A02EB820293409E4318
:1006B000EE620B790A880D3B92B203EB83039A40FA
:1006C0000368DD6A2A43DA62164B0568144A9D42C4
:1006D00006D10D68122D03D1556845F4800555608B
:1006E00005689D4218D10B68102B01D0112B13D136
:1006F000536843F400035360096810290CD10A4978
:100700000A4A0968B1FBF2F101EB8101490000E0FE
:10071000491E00910029FBD180F83C40002078BDA3
:1007200000230140002001401800002040420F003B
:1007300070B504004FF0000503D0206C002610B106
:1007400007E0012070BD666484F83C60204600F03C
:1007500019F8206CC00610D4206C20F4885040F0AA
:10076000020020642046FFF79FFD6664206C20F0A5
:10077000020040F00100206400E0012584F83C60A4
:10078000284670BD00B500680C4987B0884212D178
:100790000B480021026842F480720260006800F495
:1007A00080700590062000900320CDE90101694684
:1007B000044800F029F807B000BD00000020014007
:1007C000443802400000024070B5044600F0FAF8D8
:1007D0000546601C02D004480078044400F0F2F89A
:1007E000401BA042FAD370BD0C00002070470000EF
:1007F000044910B50A68024202D00860FFF7F6FF0C
:1008000010BD0000143C01402DE9F84FDFF87CB129
:1008100000224FF001084FF0030A4FF00F090BF1CF
:10082000040E00BF0B6808FA02F42340A3426ED105
:100830004D68022D01D0122D0ED1D50800EB850C8C
:10084000DCF820505607F70E09FA07F6B5430E6993
:10085000BE402E43CCF82060066855000F790AFA96
:1008600005FC07F0030726EA0C06AF403743076094
:100870004E68012E05D0022E03D0112E01D0122E6B
:100880000ED18668CF6826EA0C06AF4037438760F2
:100890004668A6430C79C4F3001494403443446082
:1008A000C6688C6826EA0C06AC403443C4604C68C9
:1008B000E40065D5364C256845F4804525602468FC
:1008C00022F0030504F480440094324C2E19D6F82B
:1008D000084895072F0F09FA07F5AC432E4DA8429B
:1008E00001D1002524E02D4DA84201D101251FE0B2
:1008F0002B4DA84201D102251AE02A4DA84201D170
:10090000032515E0284DA84202D1042510E037E068
:10091000264DA84201D105250AE0254DA84201D166
:10092000062505E0234DA84201D1072500E0082552
:10093000BD402543C6F80858DBF800405D464E68C8
:100940009C43F60300D51C432C60DEF8004075463E
:100950004E689C43B60300D51C432C600B4D0835F4
:100960002C684E689C43F60200D51C432C60074D52
:100970000C352C684E689C43B60200D51C432C6095
:10098000521C102AFFF44EAFBDE8F88F003C014026
:1009900044380240003001400000024000040240A0
:1009A00000080240000C0240001002400014024007
:1009B00000180240001C02400AB18161704709041E
:1009C000FBE7000001488068704700000C00002031
:1009D000D0F8940202F009BED0F8940202F019BED9
:1009E000006803F043B9006803F044B901EB8101EA
:1009F00000EBC10090F85C00704701EB810100EB57
:100A0000C100C06C704710B5044690F890020128F0
:100A100009D0012084F89002206803F036F9002004
:100A200084F8900210BD022010BDFEB50546DDE938
:100A3000096095F89042089F012C1ED0012485F88A
:100A4000904201EB810405EBC40402F07F0C04F832
:100A5000383F20816170E67184F802C04FEAD21CF1
:100A600084F803C027710097CDE90160286803F07E
:100A7000B1F9002185F89012FEBD0220FEBD70473D
:100A80002DE9F00301EB8104DDE90689DDE908C702
:100A900000EBC404022684F83B2084F83F30B8F110
:100AA000000F0AD084F84260002553B1012B3FD0DB
:100AB000022B1DD0032B2AD120E0032584F84250BD
:100AC000F2E7B8F1010F22D10ABBBCF1000F10D13F
:100AD000012284F8512002E084F8425001E084F8B9
:100AE000426094F85C20022A11D084F83D700EE038
:100AF0002AB994F85120002AF1D1EDE712B194F807
:100B0000502001E094F8512092B184F84260C4E989
:100B1000119C84F85C50E56484F8391084F85D50C9
:100B2000027C04F138010068BDE8F00303F0CEB99F
:100B300084F84250EBE700002DE9F04104460068DC
:100B40000025064603F09DF801287DD1206803F0BA
:100B500006FB002878D0206803F001FB800203D553
:100B600021684FF400104861206803F0F8FAC002D1
:100B700003D521684FF480104861206803F0EFFA34
:100B8000400103D521684FF080604861206803F080
:100B9000E6FA800702D5216802204861206803F048
:100BA000DEFA800010D5D6F8400420F02E00C6F8FA
:100BB00040042046FFF710FF0121206803F0B4FA3B
:100BC00021684FF000504861206803F0C8FAC00166
:100BD00002D5204601F03AFA206803F0C0FA000777
:100BE00005D5204600F0ABF8216808204861206850
:100BF00003F0B5FA800120D5206803F060F90746BC
:100C00004FF0010812E000BF08FA05F038420CD09E
:100C100006EB4510D0F80005E9B20004204602D5E5
:100C200000F0F0FF01E001F006F96D1CA068A84299
:100C3000EAD821684FF000704861206803F08FFA0D
:100C4000C0060ED5206800E00BE0816921F010019C
:100C50008161204601F050FA2068816941F010015D
:100C60008161BDE8F08130B58BB0040026D003204F
:100C700084F89102204600F023F8206802F092FFE9
:100C800004F1100128220D466846FFF7CAFA94E8DD
:100C90000F0002F035FF0121206803F08AFA2822B4
:100CA00029466846FFF7BDFA94E80F0003F0D2F931
:100CB000012084F8910200200BB030BD0120FBE739
:100CC00030B5006887B0B0F1A04F2ED100244FF4AA
:100CD0000070CDE90004164D694628460294FFF7DE
:100CE00093FD4FF4E05000900220CDE901040A206A
:100CF000CDE9034069462846FFF786FD0D480168A7
:100D000041F0800101600B481030016841F48041DE
:100D100001600068002200F48040059011464320E5
:100D200000F07AF9432000F06BF907B030BD000005
:100D30000000024034380240006803F024BAD0F8C2
:100D4000940202F0A8BC10B5044690F89002012865
:100D50000DD0012084F89002206802F05FFF01218D
:100D6000206802F045FF002084F8900210BD0220A8
:100D700010BD10B5044690F89002012809D001205A
:100D800084F89002206803F02AFA002084F8900288
:100D900010BD022010BD000070B5040004D094F80E
:100DA0003D00002510B106E0012070BD84F83C50E4
:100DB000204600F075F8242084F83D002068016882
:100DC00021F00101016000F0F7F933492268B0FB1E
:100DD000F1F15160314A6368934206D94FF496733A
:100DE00059434FF47A73B1FBF3F12368491C19623C
:100DF000616891420BD84900B0FBF1F2C2F30B02DB
:100E0000042A01D2042019E0B0FBF1F016E0A36837
:100E10009BB301EBC10202EB0112B0FBF2F242F410
:100E20008042120530D04BB301EBC10202EB01113D
:100E3000B0FBF1F040F4804040F400402168C8610C
:100E4000D4E90701084321680860D4E90310084386
:100E500021688860D4E9050108432168C8602068DA
:100E6000016841F0010101602564202084F83D0003
:100E7000256384F83E50002070BD00E006E001EBE1
:100E80004102B0FBF2F2CCE70120D7E701EB4101D0
:100E9000B0FBF1F0D0E7000040420F00A086010057
:100EA000F0B50068104987B088421AD14015122465
:100EB0000125032604278DE8F10069460B48FFF75A
:100EC000A3FC28028DE8F10069460948FFF79CFC65
:100ED0000848016841F400010160006800F4000066
:100EE000059007B0F0BD0000005C00400008024023
:100EF00000000240403802400248816802781144F4
:100F0000816070470C0000200B4810B5016841F467
:100F100000710160016841F480610160016841F481
:100F200080710160032000F097F8002000F006F8BF
:100F300000F024F8002010BD003C024070B50D4DBB
:100F400004464FF47A712878B1FBF0F00A49096839
:100F5000B1FBF0F000F03EFE48B9102C07D20022A1
:100F60002146501E00F058F800206C6070BD012032
:100F700070BD00000C000020180000201F4808B5BC
:100F8000016841F480410160006800F480400090F5
:100F90001A48001F016841F080510160006800F0AC
:100FA00080500090072000F057F8002211466FF0A3
:100FB0000B0000F031F8002211466FF00A0000F03B
:100FC0002BF8002211466FF0090000F025F80022EE
:100FD0001146501F00F020F800221146101F00F0AB
:100FE0001BF800221146901E00F016F80022BDE802
:100FF00008401146501E00F00FB80000443802406F
:1010000000F01F02012191404009800000F1E02022
:10101000C0F8001170470000F0B40E4B1B680C467E
:10102000C3F30223C3F10705042D00D90425191DBC
:10103000072901D2002300E0DB1E012606FA05F194
:10104000491E214099409E40761E16403143F0BC17
:1010500001F0EAB90CED00E0064900F0070208686B
:101060004FF6FF03184040EA0220034A104308608D
:10107000704700000CED00E00000FA052DE9F04794
:101080000E46050065D0DFF81481D8F80000F7B2ED
:1010900000F00F00B04207D288F80070D8F80000C6
:1010A00000F00F00B04254D128683D4C810712D5A2
:1010B000400703D5206840F4E050206028780007FE
:1010C00003D5206840F4604020602068A96820F0C3
:1010D000F000084320602878C0072DD030496868A8
:1010E0000839012812D0022813D0032811D009682A
:1010F000890700292DDA216821F0030101432160CD
:10110000FFF760FC814641F2883A0EE009688903E6
:10111000EFE709688901ECE7FFF754FCA0EB090150
:10112000514502D90320BDE8F0872068696800F0C6
:101130000C00B0EB810FEFD1D8F80010404601F061
:101140000F01B14207D90770006800F00F00B042EC
:1011500001D00120E7E72878400705D52068E96835
:1011600020F4E050084320602878000706D5206866
:10117000296920F4604040EAC100206000F02CF8AA
:101180002168084AC1F30311515CC8400649086050
:101190000020FFF7D3FE0020C5E70000003C02401E
:1011A000083802406C570008180000200148006809
:1011B00070470000180000200448054900680968CD
:1011C000044AC1F38221515CC840704718000020D6
:1011D000083802407C570008154810B5006810F028
:1011E0000C02144813D04110042A0FD0082A0ED143
:1011F0000F4C241F2268236802F03F025B0207D5D0
:101200002068C0F38810A0FB010106E0084610BD6D
:101210002168C1F38811A1FB00010023FEF7D0FF74
:101220002168C1F30141491C4900B0FBF1F010BD38
:10123000083802400024F4002DE9F84F050076D06C
:101240002878DFF8F8B2BE4CC00749D0DBF80010B0
:101250005846C1F38101012908D00068C0F381001C
:1012600002280AD1201D0068400206D520688003AC
:1012700036D568680028E2D032E06868B0F5803F73
:1012800010D0B0F5A02F206810D020F4803020605E
:10129000206820F4802020606868A0B1FFF792FBEE
:1012A00006460CE0206840F48030F4E740F48020EB
:1012B0002060F7E7FFF786FB801B642873D820685F
:1012C0008003F7D50CE0FFF77DFB064605E000BF85
:1012D000FFF778FB801B6428F0D820688003F7D4E0
:1012E0002878DFF8608280074FF000093ED5DBF8F0
:1012F0000010584611F00C0F09D00068C0F38100AF
:1013000002280BD18D48001F0068400206D42068D7
:10131000800715D5E868012809D111E0E868B8B15F
:101320000120C8F80000FFF74DFB064605E002E18A
:10133000FFF748FB801B0228C0D820688007F7D53C
:101340002068296920F0F80040EAC10020600DE023
:10135000C8F80090FFF736FB064604E0FFF732FBC3
:10136000801B02281FD820688007F7D42878000740
:1013700022D5724E744869696C3671B101210160E1
:10138000FFF720FB074604E0FFF71CFBC01B022809
:1013900009D830688007F7D50EE0C0F80090FFF755
:1013A00011FB074605E083E0FFF70CFBC01B02289A
:1013B0007ED830688007F7D42878400768D5DFF8F2
:1013C0007CA100270AF1380ADAF80000C0000BD42B
:1013D000DAF8001041F08051CAF80010DAF8000085
:1013E000012700F080500090584E3068C00510D49E
:1013F000306840F480703060FFF7E4FA009005E058
:10140000FFF7E0FA0099401A022851D83068C00569
:10141000F6D54A4EA868683601280FD005283068EE
:1014200010D020F001003060306820F004003060FF
:10143000A868B8B1FFF7C6FA00900FE0306840F036
:101440000100F4E740F004003060F7E7FFF7BAFA74
:101450000099411A41F28830814264D8306880078F
:10146000F4D50EE0FFF7AEFA009007E0FFF7AAFA16
:101470000099411A41F28830814254D8306880077F
:10148000F4D42FB1DAF8001021F08051CAF800101E
:10149000A869C0B3DBF80010C1F3810102294AD06A
:1014A0000228484607D0C8F86000FFF78BFA00E032
:1014B00039E005463AE04746C8F86000FFF782FA8F
:1014C000064604E0FFF77EFA801B02282BD820682E
:1014D0008001F7D4D5E907010843A96A1C4A4908E5
:1014E00002EB01416A6A41EA8211084395F82C1027
:1014F00040EA01611148001F016001203866FFF7D2
:1015000061FA054605E014E0FFF75CFA401B02288B
:1015100009D820688001F7D50BE000BFFFF752FA29
:10152000401B022802D90320BDE8F88F2068800103
:10153000F4D40020F8E70120F6E700000838024064
:101540000038024000004742800E474200700040D1
:101550000000FFFFF0B5426E120E93090B70C2F34C
:1015600083034B7002F003028A70426E120CCA7041
:10157000B0F86420120A0A7190F864204A71826EF1
:101580004FF6FF73120E03EA0212CA80826ECB88F6
:10159000C2F3074243EA1213CB8002F00F020A7231
:1015A000B0F86820C2F30722D3094B72C2F380134C
:1015B0008B72C2F34013CB72C2F300130B7300267D
:1015C0004E73446C4FF4007701236CB1012C43D06F
:1015D000026840F2FF519163816B41F08051816359
:1015E00080F834300120F0BD9207120D0A6190F8A6
:1015F00068200C6944EA82020A61C26E0C69120E0C
:1016000044EA92140C61C2F3C2040C7502F00702A2
:101610004A75C26EC2F3074254098C75C2F3820444
:10162000CC759207520F0A76B0F86C20C2F30724EB
:101630000A7E42EAD4120A760A69521C42650D7E7D
:10164000AD1CAA4042650D7A03FA05F585656D0A61
:101650006A43C0E917271CE090F868209206920AB6
:101660000A61C26E0C69120E44EA02220A61C26E5D
:101670000C69C2F3074214430C61B0F86C20C2F34A
:1016800007240A69521C4FEA82224265C0E9167299
:101690000766C4F3801201F8192F4FEA84624FEAFB
:1016A00052624A7010F86C2F4C7844EAD2144C7095
:1016B00002F07F028A7042684FEA12624FEAD21447
:1016C000CC70C2F341140C71C2F382044C714FEA26
:1016D00082724FEA12728A7142688C79C2F30742B1
:1016E00044EA92148C71C2F34014CC710E7202F071
:1016F00001024A728288C2F307224FEAD2148C7226
:10170000C2F38014CC72C2F340140C73C2F3001401
:101710004C73C2F381048C7302F00302CA73007924
:101720004FEA500008744B744FF00000F0BD426C5B
:101730000A60826C4A60C26C8A60026DCA60426D47
:101740000A61826D4A61C26D8A61006EC8610020C3
:10175000704770B50446B0F85000002501042068B9
:1017600000F0E3FF18B1A16B0143A16304E0002185
:10177000206800F086FE0546C5F3432070BD70B5B5
:10178000040004D094F83400002510B105E00120D5
:1017900070BD2577204600F037F8032084F8340028
:1017A000204600F007F8A5632563012084F8340083
:1017B000002070BDFEB50025044676200095CDE9D9
:1017C00001502B462A462946206800F060FE0D4E47
:1017D00046F8A05F206800F06CFE0125356002200D
:1017E000FEF7F2FF204601F0B8F920B9204601F0DB
:1017F00041F9002805D084F83450A16B0143A1635E
:101800000120FEBD00802542F0B50068134987B075
:10181000884221D112480024016841F4006101602E
:101820000068022500F4006005904FF48850CDE96F
:10183000000502AA03260C2782E8D0006946094861
:10184000FEF7E2FF0420CDE9000502AA694682E81E
:10185000D0000548FEF7D8FF07B0F0BD002C0140CE
:101860004438024000080240000C02402DE9F04FCD
:1018700087B09A4617460E460446DDF840B0FFF79B
:10188000A1F800903EB194F83400012807D0A06B75
:1018900040F000500FE0A06B40F000600BE04FF014
:1018A0000008C4F83880E06D07EB0A01814204D9D2
:1018B000A06B40F00070A0637DE0032084F834004A
:1018C0002068C0F82C80606C012800D07F024FF4A3
:1018D0000071206800F03CFE40F2FF59012530B154
:1018E0002268C2F83890A16B0143A16361E04FF018
:1018F000FF3001904FEA4A2002909020039002208E
:10190000CDE90408069501A9206800F0A4FDBAF10C
:10191000010F06D9022020633946206800F08EFEB0
:1019200004E025633946206800F0A1FE0028D7D1E5
:1019300040F22A382068416B11EA080F22D1406B2F
:10194000000409D50027206800F0B7FD46F82700FD
:101950007F1C082FF7D32036BBF1000F05D0FFF70F
:1019600031F80099411A5945E4D32168C1F83890FB
:10197000A06B40F00040A06384F83450032007B00F
:10198000BDE8F08F416BC90509D5BAF1010F06D941
:10199000616C032903D000F0F9FE0028A0D1206873
:1019A000416B090709D5C0F83890A06B40F00800DA
:1019B00028E084F834500120E1E7416B890705D520
:1019C000C0F83890A06B40F002001BE0416B890624
:1019D0001AD5C0F83890A06B40F0200012E000BF8C
:1019E00000F06BFD01C6BBF1000F05D0FEF7EAFF6A
:1019F0000099411A594507D32168C1F83890A06B66
:101A000040F00040A063D4E72068416B8902E7D42E
:101A10002168C1F8389084F834500020AFE7000006
:101A20002DE9F04F87B09A4616460D460446FEF75C
:101A3000C9FF06903DB194F83400012807D0A06B8F
:101A400040F000500DE0A06B40F0006009E0002085
:101A5000A063E26D06EB0A01914204D9A06B40F04D
:101A60000070A06390E0032184F83410216881465F
:101A7000C862606C012800D076024FF400712068C3
:101A800000F066FD40F2FF58012730B12268C2F82D
:101A90003880A16B0143A16317E0BAF1010F06D9A9
:101AA000202020633146206800F08AFE05E01020E7
:101AB00020633146206800F09CFE060008D02168B3
:101AC000C1F83880A06B3043A06384F834705BE0C9
:101AD0004FF0FF3000904FEA4A2001909020029092
:101AE0004846CDE90407CDF80C90B9466946206810
:101AF00000F0B1FC40F21A3B22E0406B40040AD5F2
:101B00005FF0000705EB8701206800F0E9FC7F1C0F
:101B1000082FF7D32035109830B1FEF753FF069900
:101B2000411A109881420BD32168C1F83880A06B0C
:101B30003043A06384F83490032007B0BDE8F08FF1
:101B40002068416B11EA0B0FD7D0416BC9050FD547
:101B5000BAF1010F0CD9616C032909D000F016FE0F
:101B600030B12268C2F83880A16B0143A16309E05B
:101B70002068416B090709D5C0F83880A06B40F098
:101B8000080014E084F834900120D6E7416B8907FF
:101B900005D5C0F83880A06B40F0020007E0416B2B
:101BA000C0F83880C90604D5A06B40F01000A063CF
:101BB000E8E784F834900020BFE74FF0E0210428E4
:101BC000086903D020F004000861704740F0040069
:101BD000FAE7704710B5401EB0F1807F01D30120B5
:101BE00010BD4FF0E02460610F21601700F01CFC75
:101BF0000020A06107202061002010BD10B5FFF774
:101C0000E8FF10BD2DE9F05F06460068884600EB4E
:101C10004814D4F808054FF0040B410708EB88007E
:101C20004FF0050A4FF0100706EBC00508D5C4F8C1
:101C300008B5D4F80C0540F00200C4F80C0532E0F9
:101C4000D4F80805800601D520202AE0D4F808053C
:101C50004FF00809000710D5D4F80C0540F0020039
:101C6000C4F80C0585F85DA0C4F80875C4F808959B
:101C70004146306802F009F815E0D4F8080540053F
:101C800011D5D4F80C0540F00200C4F80C0541460B
:101C9000306801F0FAFFC4F8087585F85D904FF4DC
:101CA0008060C4F80805D4F8080580050ED5D4F87E
:101CB0000C0540F00200C4F80C05414604F5A1648F
:101CC000306801F0E2FF4FF400708DE0D4F80805B1
:101CD0004FF00001C0074FF0010236D0306930B13B
:101CE000A86CD4F81035C3F31203C01AE86485F861
:101CF0005D20A965C4F8082595F83F0020B10228A9
:101D000002D003280ED019E0D4F80C0540F00200F0
:101D1000C4F80C05414604F5A164306801F0B5FF34
:101D200027600BE0D4F8000540F00050C4F800052F
:101D300085F85C2041463046FEF7A1FE15F8500FAD
:101D400080F001002870BDE8F09FD4F808058007F6
:101D500033D5D4F80C0520F00200C4F80C0595F832
:101D60005D000223012806D0052807D0062808D0E8
:101D7000082806D018E085F85C2015E085F85CA0FE
:101D800012E0A86D421CAA65032803D9A96585F84D
:101D90005CB001E085F85C30D4F8000520F08040AC
:101DA00040F00040C4F80005C4F8083595F85C2000
:101DB00041463046FEF763FEC5E7D4F80805000645
:101DC00014D5D4F80C0540F00200C4F80C05A86D39
:101DD0004146401CA865062085F85D0004F5A16415
:101DE000306801F052FF80202060ACE7D4F808058D
:101DF000C006A8D595F83F00032809D1D4F80C05F2
:101E000040F00200C4F80C054146306801F03DFF87
:101E1000032085F85D00C4F8087595F83F0008B107
:101E2000022890D1D4F8000520F0804040F0004016
:101E3000C4F8000587E72DE9F047026802EB41147A
:101E4000D4F808254FF0040C520709D5C4F808C58A
:101E5000D4F80C0540F00200C4F80C05BDE8F0878A
:101E6000D4F8082501EB810392064FF0020600EB3F
:101E7000C30514D52022C4F8082595F83D20012A71
:101E8000ECD185F85DC0D4F80C2542F00202C4F80C
:101E90000C25006801F0F9FE85F85C60DEE7D4F8F7
:101EA00008254FF0000352060FD585F85DC0AB65DD
:101EB000D4F80C2542F00202C4F80C25006804F5A1
:101EC000A16401F0E2FE402010E0D4F8082592055C
:101ED0000ED5D4F80C2542F00202C4F80C25006897
:101EE00004F5A16401F0D1FE4FF400702060B5E765
:101EF000D4F808254FF00108D20710D0AB65D4F80C
:101F00000C2542F00202C4F80C25006804F5A16417
:101F100001F0BBFEC4F8008085F85D809EE7D4F830
:101F200008254FF0080912074FF0050A0DD5C4F82F
:101F30000895D4F80C2542F00202C4F80C2500687C
:101F400001F0A3FE85F85DA088E7D4F808254FF0DE
:101F50001007D20610D5AB65D4F80C2542F002026A
:101F6000C4F80C25006804F5A16401F08EFE03207E
:101F700085F85D00276071E7D4F8082512060FD5B3
:101F8000D4F80C2542F00202C4F80C25006804F5D0
:101F9000A16401F07AFE062085F85D008020A5E7A7
:101FA000D4F80825520511D5D4F80C2542F00202C8
:101FB000C4F80C25006804F5A16401F066FE2760F2
:101FC0004FF48060206085F85D9047E7D4F80825DD
:101FD00092078CD5D4F80C2522F00202C4F80C2507
:101FE00095F85D20012A0AD0032A26D0042A13D0AE
:101FF000052A16D0062A17D0082A15D01FE085F822
:102000005C8095F83F20022A19D195F8512082F082
:10201000010285F8512012E085F85C6085F83D30BA
:102020000DE085F85CA00AE0AA6D571CAF65032A95
:1020300003D9AB6585F85CC001E085F85C60C4F845
:10204000086595F85C20FEF71AFD07E77CB5046883
:102050000546D4F840040190D4F8400420F02E0046
:102060000090019880070DD50198C00706D0A0699F
:1020700020F00051A1612846FEF7AAFC009840F02C
:1020800002000090019800072CD5009840F008004D
:102090000090019840071AD5A869022803D0E86883
:1020A00003280CD00FE00198C0F3414002282868B3
:1020B00003D0012102F038F805E00221FAE74EF6DC
:1020C0006020C4F804042846FEF782FC0AE0D4F835
:1020D000400420F02E00C4F840042868816941F0D3
:1020E0000051816101988006009802D540F02000DF
:1020F0000090C4F840047CBD2DE9F0410246006820
:102100000646016AC1F3434301F00F07C1F30A1405
:10211000022B25D1002C23D007EB870102EBC10550
:10212000696C00291CD0224602F01DF8686C20441E
:102130006864E86C2044E86406EB4710D0F810159A
:10214000084A11420CD0D0F8001521F0804141F02E
:102150000041C0F8001515F8500F80F001002870FC
:10216000BDE8F0810000F81F7FB51648144901252D
:1021700001604FF4803141600021816081612A0754
:102180000162C0E90A120224C461C0E90315456175
:102190000163FEF7CDFA00B1FEE70095CDE90154E9
:1021A00069460848FEF71EFA00B1FEE7009469464A
:1021B00004480194FEF716FA002800D0FEE77FBD20
:1021C000002001404C00002020B1002201210248E3
:1021D000FEF7F2BB0122F9E70008024010B50449FE
:1021E0000448FEF7CFF90249491E087010BD0000EF
:1021F00006000020585700082DE9F04F674887B0C7
:102200000024016841F010010160016801F0100133
:102210000591016841F004010160016801F00401C9
:102220000591016841F080010160016801F08001C1
:102230000591016841F001010160016801F00101AF
:102240000591016841F002010160016801F002019D
:102250000591016841F0080101600068002200F06A
:102260000800059008214E48FEF7A6FBDFF83481F0
:10227000012211464046FEF79FFBDFF82CB14FF2DA
:102280001009002249465846FEF796FB082601250C
:102290000096CDE90154694641480394FEF7B4FA2B
:1022A0000095CDE90154694640460394FEF7ACFA27
:1022B00000960226CDE901640527CDE9034769466A
:1022C0004046FEF7A1FACDE90054DFF8E080694608
:1022D00040460294FEF798FA10200090CDE9016480
:1022E0000620CDE9034069464046FEF78DFAE0201E
:1022F0000090CDE90164CDE9034769464046FEF709
:1023000083FA4FF00408CDE90084DFF8A4A0694601
:1023100050460294FEF778FAA8020090CDE90164D5
:10232000CDE9034769465046FEF76EFACDF80090B6
:10233000CDE90154694658460394FEF765FA20201A
:10234000CDE90004694658460294FEF75DFA402044
:1023500000901220CDE90105CDE9034869465046B9
:10236000FEF752FA032000901248CDE901046946B5
:102370000B48FEF749FA002211460620FEF74CFEF4
:102380000620FEF73DFE002211460720FEF744FE20
:102390000720FEF735FE07B0BDE8F08F3038024069
:1023A0000010024000080240000C02400000024001
:1023B00000040240000011100B4810B509490160EB
:1023C0000A49416000214FF480428160C0E9031254
:1023D00041618161C1610162FEF7DEFC002800D02D
:1023E000FEE710BD005C004094000020A0860100C4
:1023F00010B501220649074801F0CFF80649054803
:1024000001F02EFBBDE81040024801F05EBB000069
:10241000E13A0008D021002024000020014801F00A
:102420006BBA0000D02100200907090E002806DA47
:1024300000F00F0000F1E02080F8141D704700F15B
:10244000E02080F8001470470148FEF775BB0000DB
:102450009825002070470A6842624A688262D1E982
:1024600002231A43D1E904310B43C16A1A4321F014
:10247000F7011143C16200207047006800F00300BB
:10248000704708B5084414300090006808BD70B566
:102490000DF1100C11439CE87000234319432943AC
:1024A0004268314347F6FF639A430A434260002083
:1024B00070BD0321016000207047D0F88000704794
:1024C0000A688260D1E901231A43D1E903310B4341
:1024D000C1681A436FF30B011143C16000207047BC
:1024E0000968C0F880100020704710B586B0044617
:1024F0003720CDE9001040200290002003904FF4D7
:102500008060049069462046FFF7DAFF41F2883286
:102510003721204600F086F906B010BD10B50446FC
:102520000A4886B001432920CDE9001040200290DE
:10253000002003904FF48060049069462046FFF726
:10254000BFFF204600F024FA06B010BD0000108046
:1025500010B586B004461020CDE90010402002904E
:10256000002003904FF48060049069462046FFF7F6
:10257000A7FF41F288321021204600F053F906B03F
:1025800010BD000030B585B00024054600940194CC
:102590004FF480600294CDE9034069462846FFF776
:1025A0008FFF0B484FF4FA510068B0FBF1F041F295
:1025B00088314843401E03D24FF0004005B030BD83
:1025C000696B0906F6D540F2FF50A8632046F5E78F
:1025D0001800002070B585B004464FF4D570009007
:1025E00008204026CDE901060025C001CDE90350B1
:1025F00069462046FFF764FF0F484FF4FA51006820
:10260000B0FBF1F041F288314843401E02D24FF056
:1026100000450DE0616B11F0450FF6D0606B40078F
:1026200002D5A663042503E0606B400600D5A663CF
:1026300005B0284670BD00001800002010B586B017
:1026400004461220CDE900104020029000200390A3
:102650004FF48060049069462046FFF731FF41F255
:1026600088321221204600F0DDF806B010BD10B50A
:1026700086B004461120CDE90010402002900020D1
:1026800003904FF48060049069462046FFF718FFDE
:1026900041F288321121204600F0C4F806B010BD86
:1026A00010B586B004460720CDE9002040200290F6
:1026B000002003904FF48060049069462046FFF7A5
:1026C000FFFE41F288320721204600F0ABF806B049
:1026D00010BD10B586B0044600210220CDE90010DF
:1026E000C020CDE902014FF4806004906946204685
:1026F000FFF7E6FE204600F023F906B010BD10B546
:1027000086B004460920CDE90010C02002900020C8
:1027100003904FF48060049069462046FFF7D0FE96
:10272000204600F00DF906B010BD10B586B0044685
:102730000D20CDE9001040200290002003904FF4BE
:102740008060049069462046FFF7BAFE41F2883265
:102750000D21204600F066F806B010BD30B585B0FA
:102760000C46054600210320CDE900104020CDE9AC
:1027700002010001049069462846FFF7A1FE2246A7
:102780000321284600F024F905B030BD10B586B00D
:10279000044600210C20CDE900104020CDE90201C3
:1027A0000001049069462046FFF78AFE034A0C2187
:1027B000204600F037F806B010BD000000E1F50536
:1027C00010B586B004461920CDE9001040200290D3
:1027D000002003904FF48060049069462046FFF784
:1027E0006FFE41F288321921204600F01BF806B036
:1027F00010BD10B586B004461820CDE90010402069
:102800000290002003904FF48060049069462046B7
:10281000FFF756FE41F288321821204600F002F8F8
:1028200006B010BD444B10B51B684FF4FA54B3FB0F
:10283000F4F353435B1E02D24FF0004010BD426BD5
:1028400012F0450FF6D0426B520703D50421816385
:10285000084610BD426BD20702D00121816303E01C
:102860000269D2B28A4201D0012010BD40F2FF516C
:1028700081630021FFF705FE3049084201D10020A5
:1028800010BD002802DA4FF0007010BD410001D5E4
:10289000402010BD810001D5802010BDC10002D5AF
:1028A0004FF4807010BD010102D54FF4007010BDCF
:1028B000410102D54FF4806010BDC10102D54FF433
:1028C000006010BD010202D54FF4805010BD4102DE
:1028D00002D54FF4005010BD810202D54FF4804064
:1028E00010BDC10202D54FF4004010BD410302D516
:1028F0004FF4003010BD810302D54FF4802010BD8D
:10290000C10302D54FF4002010BD010402D54FF4DD
:10291000801010BD410402D54FF4001010BD810499
:1029200002D54FF4800010BD000702D54FF400001F
:1029300010BD4FF4803010BD1800002008E0FFFDEE
:1029400012494FF4FA520968B1FBF2F141F28832B0
:102950005143491E02D24FF000407047426B12F0C3
:10296000450FF6D0416B490703D504218163084622
:102970007047416BC90703D0012181630846704746
:1029800040F2FF51816300207047000018000020D2
:102990000E494FF4FA520968B1FBF2F141F2883264
:1029A0005143491E02D24FF000407047426B12F073
:1029B000450FF6D0416B490703D5042181630846D2
:1029C000704740F2FF5181630020704718000020DB
:1029D0001F4B10B51B684FF4FA54B3FBF4F341F2EC
:1029E000883463435B1E02D24FF0004010BD446B3D
:1029F00014F0450FF6D0436B5B0703D504218163C8
:102A0000084610BD436BDB0702D00121816303E060
:102A10000369DBB28B4201D0012010BD40F2FF51AF
:102A200081630021FFF72DFD10F4604F04D04104B5
:102A300006D54FF4005010BD000C1080002010BDD2
:102A4000000402D54FF4805010BD4FF4803010BD0B
:102A50001800002010B5064C01202070FDF7BCFCCA
:102A600018B9207820F001002070207810BD0000F7
:102A70000400002010B590B004460120ADF83800E5
:102A80002068FFF7FAFC002864D0606C032842D06D
:102A90002068FFF71EFE00285AD100212068FFF7AA
:102AA000F0FC606704212068FFF7EBFCA0670821B9
:102AB0002068FFF7E6FCE0670C212068FFF7E1FCE7
:102AC000C4F88000606C032825D00EA92068FFF7A9
:102AD00045FE00283CD1606C03281CD0BDF83800AE
:102AE000206501042068FFF70AFE002830D100218C
:102AF0002068FFF7C6FC606604212068FFF7C1FC70
:102B0000A06608212068FFF7BCFCE0660C21206865
:102B1000FFF7B7FC206704212068FFF7B2FC000D27
:102B2000E06403A92046FEF715FDB4F85000002329
:102B300002042068FFF7B4FD002809D104F1100059
:102B400007C88DE8070094E80F00FFF7A0FC0020FD
:102B500010B010BD4FF08060FAE72DE9F843002572
:102B6000044600950068FFF70DFD00281AD1206883
:102B7000FFF730FD4FF080784FF6FF76D8B14FF079
:102B80008057A5640098411C0091B0421AD00021E2
:102B90002068FFF7AAFC20B900212068FFF7BEFCDF
:102BA00010B13846BDE8F88300212068FFF769FCC2
:102BB000C00FE7D01FE00127A7640098411C0091D7
:102BC000B04201D14046EDE700212068FFF78DFCBF
:102BD0000028E7D14FF080412068FFF79FFC0028D4
:102BE000E0D100212068FFF74CFCC10FE5D0400088
:102BF00001D5676400E065640020D3E770B5064C3A
:102C0000054601202070FDF7F3FB18B92846FFF7B1
:102C100021FF2070207870BD0400002010B51248FC
:102C200088B014460078C00702D0032008B010BD59
:102C3000C1B1012905D0022908D003290CD00420F4
:102C4000F4E76846FDF7C2FB06980AE06846FDF720
:102C5000BDFB0798208005E06846FDF7B7FB0798A5
:102C6000400A20600020E1E70400002070B51D4606
:102C7000164608460124A31E2A463146FDF7CAFB24
:102C800028B900BFFDF7A8FB0028FBD1002420468F
:102C900070BDFFF7DFBE000070B51D461646084642
:102CA0000124A31E2A463146FDF7C4FB28B900BF04
:102CB000FDF792FB0028FBD10024204670BD704731
:102CC00010B5FEF719F9BDE81040FEF797BF0000F8
:102CD00030B5254893B00025016841F0805101606E
:102CE000006800F0805011902048016841F4804154
:102CF00001600068022400F48040119001200090DF
:102D0000000401908001CDE90640082008904FF4AE
:102D1000A870CDE9090407200B906846FEF78CFAED
:102D200000B1FEE70CA90F2081E831004FF4A0505C
:102D30000F904FF48050109005210CA8FEF79EF9DB
:102D400000B1FEE7FEF732FA4FF47A71B0FBF1F012
:102D5000FEF740FF0420FEF730FF00221146501E10
:102D6000FEF75AF913B030BD403802400070004001
:102D70001048016841F4700101600F48016841F09A
:102D8000010101600C4A00210832116002680B4BFE
:102D90001A400260031D0A4A1A60026822F4802267
:102DA000026005480C30016002495806803908600D
:102DB0007047000088ED00E000380240FFFFF6FE9B
:102DC0001030002410B500224FF6FF7300EB820490
:102DD000B4F87C43240409D49A4205D000EB820065
:102DE00041F40041C0F87C13D0B210BD521CD2B2E5
:102DF0000B2AEBD31A46F7E77FB51C46012501AE37
:102E00000023009586E80E0002232A46214600F0A2
:102E1000DDFC04B0002070BD7FB51D4690F81D3369
:102E2000089C03B100240123CDE90031CDE902243F
:102E300002230022294600F0C9FC04B0002070BD26
:102E400070B50446D0F87403C16920464031FDF7DF
:102E5000BDFB050004D1D4F8C423022120469047CD
:102E6000284670BD70B50546D0F874030026C469C5
:102E7000217839B1284600F01FF92178284600F062
:102E8000A0F92670217B39B1284600F015F9217B85
:102E9000284600F096F92673617B39B1284600F088
:102EA0000BF9617B284600F08CF96673D5F8740342
:102EB000C06920B102F0D8F8D5F87403C6610020CB
:102EC00070BDFEB50227054601233A46394600F09B
:102ED00056F90646FF287ED00146284600F0CEFD72
:102EE000502002F067FAD5F874130446C86106EB67
:102EF000860000EBC60005EB400090F848130A0678
:102F000003D56170B0F84A03608161782846FFF705
:102F100059FF2070014695F81D03638903228DE84F
:102F20000D0095F81C336278284600F067FC217884
:102F30000022284600F01AFC00231A460A212846DF
:102F400000F01DF9FF2854D000EB800101EBC00018
:102F500005EB400090F848130A0604D5E173B0F879
:102F60004A13618303E0A173B0F84A13218390F8F8
:102F700050130A0604D5E173B0F85203608303E0EE
:102F8000A173B0F852032083A17B2846FFF71AFFF4
:102F90006073E17B2846FFF715FF2073208B95F8BF
:102FA0001D1302260091CDE9016095F81C33A27B28
:102FB000617B284600F022FC608B95F81D13009180
:102FC000CDE9016095F81C33E27B217B284600F0B7
:102FD00015FC002000E00CE084F84C000246617B08
:102FE000284600F0C3FB217B0022284600F0BEFBF0
:102FF00000273846FEBD70472DE9F0410546D0F860
:10300000740301270026C4694FF0040894F84C00AB
:1030100005284AD2DFE800F00305163B42000027EE
:1030200043E02122A16C2A7420226A746E82AE824F
:1030300007222846EA8200F062F848B9022084F8A4
:103040004C0032E004F140012846FDF7BFFA20B100
:1030500001282AD084F84C8027E084F84C60A06CCA
:1030600094F84410027991421FD194F84610827965
:1030700091421AD194F845104279914215D1216CB0
:103080000068814211D12846FFF7B5FF0DE02846C0
:10309000FDF714FA2846FDF7DDF906E00021284681
:1030A00000F00FF808B984F84C603846BDE8F081AC
:1030B000704700207047704710B500F086FA002076
:1030C00010BD8278012A07D10222027401224274C3
:1030D000002242828182C2820022114600F00FB893
:1030E0007FB51C46012501AE0023009586E80E0041
:1030F0002A46214600F06AFB04B0002070BD70B57E
:1031000004460120A3780546012B09D0022B06D1E5
:10311000204600F00AF948B1022800D1A57070BD20
:10312000A160A28125760221A17070BDA570002149
:10313000217670BD7FB51D4690F81D33089C03B104
:1031400000240123CDE90031CDE9022400231A46F1
:10315000294600F03BFB04B0002070BD1FB50023E2
:103160001446CDE900310822CDE902231A46214652
:1031700000F02CFB04B0002010BDFDF725BB70B59E
:10318000002400F2323004EB840505EBC40500EBAB
:103190004505EE7B0A358E4201D0FF2909D1AE7973
:1031A000964201D0FF2A04D1ED799D4207D0FF2B32
:1031B00005D0641C64B2022CE5DBFF2070BDE0B2D8
:1031C00070BD0B2907D200EB8100B0F87C13C1F36E
:1031D0000E01C0F87C130020704730B48578029C43
:1031E000012D0FD141F080010174062141740321AA
:1031F0004282B1EB122F02D140F2094100E00021DE
:103200008182C482224630BC1946FFF778BF0A8803
:1032100003781A440A80017808447047F8B50E46CE
:1032200000F11C05009104462B464FF4007200216A
:10323000FFF7D3FF070005D13246294604F23230AA
:1032400000F0E6FA3846F8BD38B50D460091044660
:1032500000F58E734FF480720021FFF7BEFF01006E
:103260003DD104F5487094F81C21027094F81D219A
:10327000427094F81E2194F81F31082D02EB0322AE
:10328000428094F82021027194F82121427194F82F
:103290002221827194F82321C27120D994F824212B
:1032A00094F8253102EB0322028194F8262194F848
:1032B000273102EB0322428194F8282194F8293126
:1032C00002EB0322828194F82A21827394F82B2145
:1032D000C27394F82C21027494F82D21427408468C
:1032E00038BDF8B51C461646009341F4407200F50F
:1032F0008E731D460021FFF770FF002814D16978F6
:10330000032911D129788A1EA24200DC144600212B
:10331000A2B2AD1C04E06B5C891C06F8013B89B2CB
:103320009142F8D300213170F8BD2DE9F84F0446E1
:103330000125007E0B262F464FF009084FF00709A4
:103340004FF0050B4FF00D0A0C281ED2DFE800F0FD
:10335000A9060E212C38445C67788495627904F1C3
:1033600010012046FFF7FAFE02200DE061792046A9
:1033700000F08DF9012877D1207CE18A00F08000EF
:1033800021B180283BD1032020768AE0802814D008
:103390002FE0D4F8B803E0812379A2892046A16800
:1033A000FFF79EFE0420EFE72179204600F06FF939
:1033B000012802D0052841D056E084F8188070E03A
:1033C00000976379A2892046A168FFF7B3FED4F87D
:1033D000B803E0810620D7E76179204600F057F96D
:1033E000012806D0052807D0022808D0042809D0D3
:1033F00057E084F8189054E00C2020761EE084F802
:1034000018B04EE026764BE0002223791146204684
:10341000FFF766FED4F8B803E0810820B4E721790D
:10342000204600F034F9012804D0042823D00528D0
:1034300004D036E084F818A0002532E0032530E0FF
:1034400000970022637911462046FFF773FED4F8F7
:10345000B803E0810A2097E76179204600F017F968
:10346000012804D00228A8D0042804D019E000259F
:1034700084F818A015E0267613E0607E401CC0B2E8
:103480006076022805D8204600F090F92776A770CC
:1034900007E0D4F8C4230621204690470020607638
:1034A00002252846BDE8F88FFEB50446012640787F
:1034B0000025374604F58E7208286CD2DFE800F04C
:1034C00004161D434A53576208212046FFF7BCFEED
:1034D000002860D194F82703A071677094F81D1339
:1034E0000091CDE9015094F81C3319E012212046D7
:1034F000FFF7AAFE30BB022033E00121204600F096
:10350000C8FAF8B90220FFF738FE84F81C730320CC
:103510006070A07994F81D13CDE900153B46029028
:1035200021798022204600F069F9A07994F81D13D2
:103530000091CDE9015094F81C33617900222046B6
:1035400000F05CF927E009212046FFF767FE10BB79
:10355000042006E0B4F834132046FFF75FFED0B92C
:103560000520607017E094F82E13062502E094F809
:103570002F13072521B1FF232046FFF7B2FE50B9D4
:10358000657008E094F8301321B1FF232046FFF75F
:10359000A8FE00B900263046FEBD70B50D460400F9
:1035A00011D084F8BC230020C4F87403C4F8780355
:1035B0002046FCF7BDFF0DB1C4F8C453204600F00F
:1035C00079F8002070BD022070BD10B50024D0F83D
:1035D000C003FDF718FA30B1012801D0022801D04C
:1035E000022400E00124204610BD10B5017819B175
:1035F0000178012909D00AE0012180F81E13D0F8D2
:10360000C42322B10421904701E00221017000206F
:1036100010BD10B5044600F0C9F821792046FFF727
:10362000D0FD61792046FFF7CCFD002084F81E0311
:10363000D4F8C42312B1052120469047204600F05B
:10364000A5F803202070002010BD10B590F8BC0331
:10365000012802D10846FEF7B7FDC820FDF7B4F8EF
:10366000002010BDD0F8C003FDF7C7B910B5012484
:10367000D0F8C003FDF7B7F920B1012805D0022822
:1036800003D101E0002400E00224204610BDD0F860
:10369000C003FDF7ABB9D0F8B813491CC0F8B81394
:1036A00001780A2905D1D0F87413002901D089695D
:1036B0000847704710B5044690F8BC0301281ED196
:1036C00010484FF0A0410022C0F89442C4F8C00353
:1036D0000160082181600321C0E903120221C0E9D1
:1036E0000612FDF7C0FA18B1E22107A000F0E4FDD0
:1036F0000448FDF775F90146204600F034F8002033
:1037000010BD0000982500202E2E2F5372632F75B8
:103710007362685F636F6E662E630000FEB508AC6F
:1037200094E8E0008DE8E0000024D0F8C003FDF745
:103730007CF930B1012801D0022801D0022400E038
:1037400001242046FEBD10B50024D0F8C003FDF7CB
:10375000F3FA30B1012801D0022801D0022400E0A0
:103760000124204610BDC0F8B8137047D0F8C0033C
:1037700001EB810100EBC10090F83B1011B180F822
:10378000502001E080F851200020704710B500243F
:10379000D0F8C003FDF7D7FA30B1012801D00228D4
:1037A00001D0022400E00124204610BD10B5002401
:1037B000D0F8C003FDF7DDFA30B1012801D00228AE
:1037C00001D0022400E00124204610BD2DE9FF4174
:1037D0000AAC94E8E0108DE8E0100024D0F8C003B3
:1037E000FDF74EF930B1012801D0022801D00224A2
:1037F00000E0012404B02046BDE8F081FEB508AF2A
:1038000097E870008DE87000FFF788FF0020FEBD8C
:103810002DE9F84105460B782B704B786B708B784F
:10382000CC78084603EB04236B800B792B714B7922
:103830006B718B79AB71CB79EB710027017A2972AF
:10384000092A57D90921ADF800104EE06946FFF763
:10385000DEFC4178042946D107EB870101EBC70163
:1038600005EB4108017888F80A10417888F80B10B8
:10387000817888F80C10C17888F80D10017988F8E3
:103880000E10417988F80F10817988F81010C179ED
:1038900008F10A0488F81110017A2172002618E054
:1038A0006946FFF7B4FC4178052912D108EBC6013F
:1038B00002780A7542784A7582788A75C278CA7524
:1038C00002794379761C02EB03220A8382798A7695
:1038D00076B22179B14204DD6988BDF800209142B9
:1038E000DED87F1C7FB2022F04DA6A88BDF8001090
:1038F0008A42ABD8BDE8F881FEB5044602208DF8B7
:1039000000002178002008270C2605460B2913D239
:10391000DFE801F006A41399A4428250575F920099
:1039200094F81E03002807D001202070C820FFF75C
:1039300024FC2046FFF707FF90E06420FFF71DFC02
:103940002046FFF793FE84F81D0305202070002118
:103950002046FFF737FA607180212046FFF732FAE0
:1039600020710146A07994F81D230092CDE9015001
:1039700094F81C3380222046FFF740FFA07994F88A
:103980001D130091CDE9015094F81C336179002298
:103990002046FFF733FF61E02046FFF785FDD0BBEF
:1039A00084F81F5394F83103012801D007203FE029
:1039B000277053E0D4F8C4236AB30121204690470E
:1039C000F6E794F83713204600F071F818BB092089
:1039D0002EE0D4F87813F1B1C4F8745394F841236D
:1039E00004EB8001D1F870130B79934201D1C4F834
:1039F0007413401C10F0FF00F2D0D4F87403C8B167
:103A0000816820468847A8B906202070D4F8C423CE
:103A100003212046904721E0D4F8740350B1016996
:103A2000204688478DF800009DF80000B0B90A20B4
:103A3000207013E0267011E0D4F8740370B141696E
:103A4000204688470AE02046FCF772FDD4F874034C
:103A500020B1C16820468847C4F874530020FEBDD9
:103A6000002211B1D0F8783313B10222104670470A
:103A70000123C0F87833C0F87013F7E7024600203E
:103A800092F836338B4202D982F81F137047022016
:103A900070478278012A06D10022027405234374FC
:103AA00041828282C28200221146FFF728BB8278BF
:103AB000012A06D1002202740923437441828282C2
:103AC000C28200221146FFF71ABB10B50446FFF769
:103AD0005DFE01212046FFF7B8FD002010BD00006B
:103AE00001290AD00548022906D0042903D0052956
:103AF00003D1032100E00121017070470A0000207A
:103B000070B50446049D06990D9801290CD0E06813
:103B100040F04000E060204600F028F84FF480308C
:103B2000A063012D16D01DE0A16B21F48031A163AB
:103B3000E1680D4A1140E160E16821F44011E16063
:103B4000012803D1E06840F48010E060204600F0D6
:103B50000DF8E6E7A06840F00600A060A06840F01D
:103B60002000A060002070BDBFFFBDFF01220C49F6
:103B700002E0521C8A420BD80369002BF9DA026971
:103B800042F001020261012204E0521C8A4201D982
:103B9000032070470369DB07F7D10020704700005E
:103BA000400D0300816821F0010181600020704711
:103BB00030B50246012400230C4800EAC44040F01E
:103BC000004502F5A06000EB4110056102F5A06020
:103BD00000EB4110036823F0804343F0004302F5FB
:103BE000A06000EB41100360002030BD0000F81F12
:103BF00008B5D0F8402422F02E020092D20405D459
:103C0000012909D1009941F4805103E021B90099BB
:103C100021F48051C0F84014002008BD816841F0B3
:103C20000101816000207047002110220261054AD5
:103C3000491C914201D9032070470369DB06F7D480
:103C400000207047400D03000022202343EA811129
:103C500001610549521C8A4201D90320704703695A
:103C60009B06F7D400207047400D0300D0F80804ED
:103C700080B2704708B5D0F840040090C0F34140CE
:103C800008BD406900F00100704710B502460023EE
:103C900002F5A06000EB41100068C0F3814040B124
:103CA00002F5A06000EB41100068C0F381400228DB
:103CB00046D102F5A06000EB4110006840F080445E
:103CC00002F5A06000EB41100460D06A00F47F00B0
:103CD00048BB02F5A06000EB4110006820F00044F2
:103CE00002F5A06000EB4110046002F5A06000EB5B
:103CF0004110006840F0004402F5A06000EB411064
:103D0000046000BF581C0346B0F57A7F00D909E073
:103D100002F5A06000EB4110006800F00040B0F137
:103D2000004FEFD053E002F5A06000EB41100068B7
:103D300040F0004402F5A06000EB4110046046E052
:103D400002F5A06000EB4110006840F0804402F5ED
:103D5000A06000EB411004604FF48260805880B294
:103D600048BB02F5A06000EB4110006820F0004461
:103D700002F5A06000EB4110046002F5A06000EBCA
:103D80004110006840F0004402F5A06000EB4110D3
:103D9000046000BF581C0346B0F57A7F00D909E0E3
:103DA00002F5A06000EB4110006800F00040B0F1A7
:103DB000004FEFD00BE002F5A06000EB411000686F
:103DC00040F0004402F5A06000EB411004600020C8
:103DD00010BD0000F0B5DDE906564FF0FF3C00EBEA
:103DE0004114059FC4F808C535B1012D21D0022D1D
:103DF00002D0032D2AD114E040F29D4CC4F80CC52A
:103E00005FEA026C05D500BFD4F80CC54CF4807C89
:103E10001AE0B0F1A04F19D0D4F80CC54CF0600CEA
:103E200012E040F29D6CC4F80CC55FEA026CEBD462
:103E30000CE040F2252CC4F80CC55FEA026C05D5F5
:103E4000D4F80CC54CF4C07CC4F80CC5D0F818C428
:103E50004FF0010E0EFA01FE4CEA0E0CC0F818C429
:103E6000816941F0007181614FF0FE5000EA83509A
:103E70004FF4F04101EAC22108434FF4004101EA46
:103E800002210843022F10D05FF0000140EA4140B8
:103E90004FF4402101EA85410843C6F30A01084373
:103EA000C4F80005032D02D007E00121EEE7D4F8A5
:103EB000000540F00050C4F800050020F0BD0146A8
:103EC00040F21440405880B2704700002DE9F84F8E
:103ED00005460C4616464FF0000BDA4600274FF415
:103EE0008078B946B5F1A04F1CD02079D0B94EB931
:103EF0006079012806D161782846FFF759FE002035
:103F0000BDE8F88F012E0DD1607805F5A06101EBB9
:103F10004010C06820F06002607801EB4010C26081
:103F200000206071206968B1218920690844401E21
:103F3000B0FBF1F087B2474505DD4746208978435D
:103F4000206100E00127E07810B1208978432061EA
:103F50002069C0F312003E4901EAC7410843A17A33
:103F60004FF0C04202EA41710843617805F5A06252
:103F700002EB4111086136B1607805F5A06101EBF3
:103F80004010E26842614FF48160405900F0010046
:103F900080F0010B607805F5A06101EB401000682E
:103FA00020F00052607801EB40100260607801EB75
:103FB0004010006840EA4B72607801EB40100260EC
:103FC000607801EB4010D0F8009029F0804949F06A
:103FD0000049607801EB4010C0F80090AEBBE0787B
:103FE00098BB206988B3E07930B1012813D002284A
:103FF00003D003281ED10DE000BF2069C01CC0F310
:104000008F0AE86A80B2504503D2A86940F02000C8
:10401000A86110E000BF2069C01CC0F38F0A4FF4F4
:104020008260405980B2504503D2A86940F0806058
:10403000A86100E000BF00BF00200090208A83B28A
:1040400062782846E16800F023F9002058E7000074
:104050000000F81F2DE9F047174604460025DDF85B
:104060002090C0F8005E806B20F48020A063A06BDD
:1040700020F40020A063A06B40F40010A0634FF078
:10408000A048032B06D1444504D0D4F8000440F0E6
:10409000040003E0D4F8000420F00400C4F8000495
:1040A00010212046FFF7D0FD2046FFF7BDFD002080
:1040B000461E06E004EB4011C1F80865C1F80C5536
:1040C000401C8742F6D801212046FFF791FDC82009
:1040D000FCF77AFBA5616661444505D180206062EA
:1040E0000C48A0620C4805E04FF4007060620B4879
:1040F000A0620B48C4F80001B9F1000F03D1A06918
:1041000040F01000A061A06906490843A0610020AA
:10411000BDE8F08780006000E00040000002000180
:104120000003E000080020A3D0F8002422F00302DE
:10413000C0F80024D0F8002401F003031A43C0F8AB
:104140000024012902D0022903D006E04BF6803179
:1041500001E041F27071C0F8041400207047416919
:1041600080690840704710B503460020D21C9208B1
:1041700003F5805303E01C6841F8044B401C904257
:10418000F9D3084610BD38B50446D0F8400420F0F5
:104190002E00009040F48070C4F840040A2004F51A
:1041A0008864FCF711FB009820F4807020600020E8
:1041B00038BD10B5C26822F0C042C260012901D0EA
:1041C00021B107E0C16841F0005102E0C16841F04F
:1041D0008041C1603220FCF7F7FA002010BDF0B535
:1041E00005460027A86820F00100A8601021284695
:1041F000FFF72AFD2846FFF717FD002411E005F51B
:10420000A06000EB4410066846F0804626F00046A9
:1042100026F4004605F5A06000EB44100660601C23
:10422000C4B20F2CEBDD002423E005F5A06000EB09
:104230004410066846F0804646F0004626F40046E4
:1042400005F5A06000EB4410066000BF781C07462F
:10425000B0F57A7F00D909E005F5A06000EB4410C5
:10426000006800F00040B0F1004FEFD000BF601CCC
:10427000C4B20F2CD9DD4FF0FF3140F21440415150
:1042800008466861A86840F00100A8600020F0BD01
:1042900030B50024039D6DB9DB1C9B0800EB023098
:1042A00000F5805004E000BF51F8042B0260641C4C
:1042B0009C42F9D3002030BDFEE702E008C8121F7F
:1042C00008C1002AFAD170477047002001E001C1FF
:1042D000121F002AFBD1704710B504460020E07081
:1042E000401E2063204601F0ACF808B1042010BD48
:1042F00004F2322000F0D2FFA0F52A41553901D056
:10430000032010BD94F83400E92805D0EB2814D11F
:1043100094F83600902810D104F16A0000F0B3FF41
:104320000749B1EB002F06D004F1860000F0ABFF87
:104330000449884201D1002010BD022010BD0000B8
:104340000046415446415433F0B50022144D134603
:1043500005EB021426685EB10768BE4209D16668A3
:104360008768BE4205D1A4684669B44204D000E023
:104370000123521C022AEBD3022A01D069B904E0BE
:104380004BB9022907D01220F0BD05EB021080893D
:10439000B0F5807F01D00020F0BD1020F0BD0000FE
:1043A0003028002030B50021054B0C4603EB0112EC
:1043B0001568854200D11460491C0229F6D330BD2E
:1043C000302800200268C06A938952895343B1FBA8
:1043D000F3F1001D04C81AB1914203D3891AF8E71A
:1043E000002070470068084470478269891E921E49
:1043F0008A4201D800207047C26A408901FB002030
:1044000070472DE9F04105680F00804606D000F0A6
:1044100053FE022809D20120BDE8F0812E6916B1B1
:10442000A869B04207D8012605E0411CF4D0A9696B
:104430008142F1D83E463446A869641CA04202D8A5
:104440000224022E0AD32146404600F035FE38B140
:104450000128E1D0411CDFD0B442EDD10020DBE7E0
:104460004FF0FF3632462146284601F003F830B9B6
:1044700057B122463946284600F0FCFF20B10128FA
:104480000FD001242046C7E72C61D5E90501891E1C
:10449000884201D8401E6861287940F001002871E7
:1044A000F0E73446EEE700002DE9F0410E462430F7
:1044B0000D6804460B22202100F0BCFF00200146BD
:1044C00008272A5C401C202A12D92F2A0BD05C2AEC
:1044D00009D02E2A01D0B94214D30B2F22D02E2A74
:1044E00020D10CE0401C2B5C2F2BFBD05C2BF9D097
:1044F00028443060B1B12078E5281FD020E00821A1
:104500000B27DEE7802A03D3114B1A4412F8802CC4
:1045100010A300E05B1C93F800C0BCF1000F04D0B6
:104520009445F7D10620BDE8F081A2F16103192B73
:1045300001D8203AD2B26254491CC2E7052020704B
:10454000202A01D8042000E00020E0720020EAE7E1
:1045500084570008222A2B2C3A3B3C3D3E3F5B5DB2
:104560007C7F0000401E022812D20A4901EB001194
:104570008889B0F5807F05D008B1401E80B288815F
:1045800010B103E00020FAE7002008600020704727
:1045900002207047302800202DE9F0410446002118
:1045A000056800F0DFF8002826D12846E16900F010
:1045B00048FF02001FD1206A017899B1C17A01F049
:1045C0003F01A171C17A09070FD404F124010B2620
:1045D00010F8013B11F8017BDB1B761E04D0002B89
:1045E000F6D002E0042206E02BB10021204600F0C4
:1045F00005F80200D9D01046BDE8F0812DE9F0475A
:10460000054647690468C0698946203710B1B7F587
:10461000001F02D30420BDE8F087A189B7FBF1F2A7
:1046200001FB127100295FD1401CE861A9694FF0BC
:10463000000819B3A0896289B7FBF0F0521E10423E
:1046400052D1284600F038FD064601281FD9701CBB
:1046500036D0A069B04241D8B9F1000F12D0284637
:10466000A969FFF7CEFE06000FD0012E0FD0701CF7
:1046700026D0204601F02EF810BB0AE02089B0EBCE
:10468000571F31D8C5F81C80C4E70720C3E70220B4
:10469000C1E7A289002104F1340000F0CBFE4FF005
:1046A000000831462046FFF7A0FE4FF001092063C5
:1046B0000DE000BF84F80390204601F00BF808B12C
:1046C0000120A8E7206B08F10108401C20636189E4
:1046D0004145EFD8216BA1EB08002063314620460D
:1046E000AE61FFF782FEE8616F61A089B7FBF0F170
:1046F00000FB117020443430286200208BE770B535
:1047000004460021066800F02DF80DE03046E1690E
:1047100000F097FE50B9206A0078E52809D040B132
:1047200001212046FFF76AFF0028EFD0042807D0B8
:1047300007E03046E16900F084FE050003D00FE099
:10474000072005460CE020220021206A00F072FEBE
:104750000B2204F12401206A00F062FE0120F070B7
:10476000284670BD2DE9F04104680F460646B1F5B4
:10477000001F3CD2F8063AD17761B56825B9207898
:10478000032806D3A56A25B16089A18900FB01F839
:1047900012E02089B0EB571F29D9A06A12E03046F9
:1047A00000F08AFC0546401C1FD0022D1FD3A069D3
:1047B000A8421CD9A7EB080747452946EFD2204657
:1047C000FFF713FEC6E9065088B1A189B7FBF1F1E6
:1047D0000844F061A089B7FBF0F100FB11702044A0
:1047E000343030620020BDE8F0810120FBE7022078
:1047F000F9E70000084910B50B5C002253B901220B
:104800000A540A1801EB8000127A406801681046C9
:1048100088470246104610BD5028002030B4054C91
:10482000231804EB80001B7A406804691846A446EC
:1048300030BC60475028002030B4054D2C1805EBE3
:104840008000247A406885682046AC4630BC6047CA
:1048500050280020044A111802EB8000097A4068B1
:1048600042680846104700005028002030B4054D2B
:104870002C1805EB8000247A4068C5682046AC46B9
:1048800030BC60475028002038B5044600F04AF993
:1048900000280CD16946204600F045FF002806D1CB
:1048A0002069FFF75FFE002801D10021216038BD9B
:1048B0002DE9F74181B0904602980090684600F0DB
:1048C00071FC040003D50B2004B0BDE8F0810D4E4F
:1048D000002756F824501DB12846FFF763FD2F70BE
:1048E0000198002800D0077046F8240002D0B8F1E3
:1048F000010F01D00020E7E7002201A902A800F083
:1049000031FAE1E7200000202DE9F74394B00500DB
:104910000BD002F03F063246694615A800F022FA95
:1049200004004FF0000804D0F3E0092017B0BDE800
:10493000F0830098049004A8159900F057FB040038
:104940000ED19DF83F00000601D5062408E070084E
:1049500001D0012100E0002104A8FFF7F5FC044686
:1049600016F01C0F5DD04FF00109C4B1042C10D11A
:1049700000206B4902E0401C022804D201EB001227
:104980001268002AF7D1022807D004A8FFF7B7FE63
:10499000044646F008065CB1BBE01224B9E09DF87D
:1049A000160010F0110F47D1700701D50824B0E0B0
:1049B000300747D500F0F4FB07460C9839460E3017
:1049C00000F038FE0C983946163000F033FE0C9893
:1049D0002021C1720C99009800F042FC0746002289
:1049E0000C99009800F012FE0C9800211C3000F089
:1049F00021FE009981F8039017B3D1F8309000227E
:104A0000394604A800F0C8FD040009D149460098C1
:104A100000F017FD04000098A7F1010707610DD011
:104A200077E0ECBB9DF81600C10601D5042470E0C8
:104A3000B10703D5C00701D007246AE0300701D5CC
:104A400046F040060098006B68620C98A8627008F7
:104A500001D0012100E0002104A800F0C1FB286181
:104A6000C0B30C99009800F0FBFBA8600C981C30B8
:104A700000F009FCC5F82C80E860009929600099D5
:104A800005F130004FF48052C988A9802E7585F851
:104A90001580C5F8208000218146C5F8188000E007
:104AA00037E000F0C7FCB00635D5EE689EB3AE61C6
:104AB0000098A9684789808947430FE0284600F09D
:104AC000FBFA0146012800D80224481C03D0F61B3B
:104AD00024B105E021E00124F61B01E0BE42EDD83F
:104AE000E961B4B900988289B6FBF2F302FB136264
:104AF0008AB1FFF77AFC80B1009901238A89B6FB5D
:104B0000F2F202442A6248784946FFF795FE10B156
:104B10000124C5F80080204608E70224F9E70000D8
:104B200030280020F8B50446694600F0FCFD002856
:104B30000ED1217D4A060BD508060ED50098226AB3
:104B40000123407804F13001FFF790FE08B1012005
:104B5000F8BD207D00F07F00207500F021FB0646A7
:104B6000616A009800F06DFC0028F1D1A56A294621
:104B7000E87A40F02000E872A268206800F046FD64
:104B800005F11C00E16800F055FD314605F1160005
:104B900000F050FD002105F1120000F053FD0098D7
:104BA0000121C17000F052FD217D01F0BF0121758E
:104BB000F8BD2DE9F04F884689B00021196099466B
:104BC0001546044604A900F0AEFD002806D1607D1C
:104BD000002803D1207D800703D4072009B0BDE859
:104BE000F08FA069012742194FF0020A04F1300B3F
:104BF000824200D2C543ACE00498A1698289B1FB2E
:104C0000F2F302FB1313002B79D1B1FBF2F64089CA
:104C1000401E064018D129B1E06A38B12046FFF79E
:104C2000D1FB07E0A06838B9002100E0E169204627
:104C3000FFF7E7FB00287ED001282FD0411C58D079
:104C4000E061A16801B9A060207D00060BD5049841
:104C5000226A012340785946FFF708FEC0BB207D39
:104C600000F07F002075E1690498FFF7BEFBA8B152
:104C70003044009004988189B5FBF1F1029141B371
:104C8000721841898A4201D9891B029140784146B4
:104C9000029B009AFFF7EAFDD0B903E084F815A063
:104CA00002209BE7216A0098081A029988420AD2DA
:104CB00004998A8900FB0281584600F0B1FB207DEF
:104CC00000F07F00207504988689029846432FE003
:104CD0000FE0FFE7226A00998A420ED0E268A169DC
:104CE00091420AD2407801235946009AFFF7A4FD69
:104CF00018B16775012071E701E0009820620498FF
:104D0000A1698089B1FBF0F200FB1212861AAE4253
:104D100000D92E46B1FBF0F200FB121020443246BF
:104D20004146303000F07CFB207D40F08000207553
:104D3000B044A06900E00FE03044A061E16888421F
:104D400000D80846E060D9F800008119AD1BC9F809
:104D50000010002D7FF450AF207D40F04000207502
:104D600000203BE72DE9FF41002790460E460F60EB
:104D700000F018FA050003D50B2004B0BDE8F0815F
:104D8000974850F825409CB13460207808F0FE0622
:104D900020B16078FFF75EFDC1070BD02770E8B245
:104DA000B8466070FFF726FDC10708D00320E4E78E
:104DB0000C20E2E70EB1400704D40020DDE71EB16D
:104DC000400701D50A20D8E7607804F10C020221DF
:104DD000FFF724FDF0BBA089A0F50071B1F5606F6D
:104DE0003FD8411E08423CD1002631462046FFF7FD
:104DF00073FA022822D100254FEA0D0704EB0510B3
:104E000090F8F61100F5F97019B1083000F03BFA8E
:104E100000E0002047F825006D1C042DEED300258E
:104E200057F8256036B131462046FFF755FA02287B
:104E300001D203E003206D1C042DF1D3042810D00F
:104E4000022878D204F13F0000F028FAA1898842B4
:104E500071D100E005E004F14A0000F01FFA10B142
:104E600005E0012089E704F1580000F00CFAE06148
:104E700094F84450A570012D01D0022D5BD145431B
:104E800094F841006081E8B3411E084253D104F117
:104E9000450000F003FA2081A1894909B0FBF1F235
:104EA00001FB120070BB04F1470000F0F7F90700A6
:104EB00004D104F1540000F0E6F9074604F1420081
:104EC00000F0ECF9010036D0A08923894009B3FB3A
:104ED000F0F04A19024497422DD3B81A6789B0FB03
:104EE000F7F078B103274FF6F57C604500D802272C
:104EF00040F6F57C604500D801273244801C3144DF
:104F0000E26200E017E0A061C4E90861032F14D059
:104F10008BB12944A162022F20D000F0010100EBE7
:104F2000400001EB5000A189401E0844B0FBF1F0A5
:104F3000E169884214D90D201FE704F15E0000F0FA
:104F4000ADF90028F7D120890028F4D104F16000E0
:104F500000F099F9A062A0698000E4E74000E2E770
:104F60004FF0FF306061206180202071032F2CD131
:104F700004F1640000F092F9012826D1711C20464A
:104F800000F05FFA08BB84F8048004F2322000F0DD
:104F900085F9A0F52A41553917D104F1340000F004
:104FA00072F91049884210D104F5067000F06BF9CF
:104FB0000D49884209D104F5077000F064F9606179
:104FC00004F5087000F05FF9206105482770001FA4
:104FD0000188491C0180E1802046FFF7E3F9ECE6F7
:104FE00020000020525261417272416173B5044643
:104FF0000568019801E0401C019001782F29FAD042
:105000005C29F8D00021A16001980078202806D200
:10501000802084F82F002046FFF7A4FB7CBD01A967
:105020002046FFF741FA0028F8D12046FFF7B4FAEE
:1050300094F82F1028B10428F0D14907EED40520A8
:105040007CBD4907FCD4A079C006F8D5A989606960
:10505000B0FBF1F201FB120041192846343100F097
:10506000FFF8A060DBE7000010B5002821D0114B4D
:105070000022001F196803E0814203D80A464968EC
:105080000029F9D152B11368841A9C4204D10068F6
:1050900018441060104602E0506000E0186039B11A
:1050A00002680B1A934203D10B681A4402604968E4
:1050B000416010BD440000202DE9F04104680D4618
:1050C00002290BD3A069A84208D920784FF0FF36F7
:1050D000012807D0022834D0032849D001263046C1
:1050E000BDE8F081A08905EB5507B7FBF0F0616AD8
:1050F0000144204600F0A5F90028F0D1A089B7FBB3
:10510000F0F100FB11717F1CB7FBF0F0214491F826
:105110003480616A0144204600F093F90028DED112
:10512000A089B7FBF0F100FB1170204490F8341017
:1051300048EA0120E90701D00609D0E7C0F30B06D1
:10514000CDE7A089616A4008B5FBF0F00144204634
:1051500000F077F90028C2D1A1896800B0FBF1F214
:1051600001FB12002044343000F098F80646B6E700
:10517000A089616A8008B5FBF0F00144204600F088
:1051800060F90028ABD1A189A800B0FBF1F201FBC6
:1051900012002044343000F076F820F070469EE78C
:1051A0000020704710B504464FF0FF302268002AF7
:1051B00013D0114600E0491C0B78212B0ED33A2B5B
:1051C000F9D112F8013B303B0A2B06D28A4204D1B6
:1051D000002B02D1491C1846216010BD002010BDD3
:1051E000F0B502461D4BD2F80050002003EB00142E
:1051F0002668AE4207D166689768BE4203D1A468AC
:105200005669B44202D0401C0228EFD3022814D1C0
:10521000002002E0401C022804D203EB00142468A2
:10522000002CF7D102280ED003EB001425609568FE
:1052300065605269A2600022A281002903EB00117F
:10524000898902D019B10020F0BD491C01E04FF45A
:10525000807103EB0012401C9181F0BD30280020CA
:1052600070B506460D4601F11A0000F017F8044625
:105270003078032805D105F1140000F00FF844EA56
:105280000044204670BDC178827842EA012142780C
:10529000007842EA012140EA012070474178007815
:1052A00040EA01207047000094B0FBF72DFEFDF7A7
:1052B0000FFDFCF7A1FFFCF757FFFDF77DF8FDF7A9
:1052C00097F8FCF78BFF2348214901220160002158
:1052D00041608160C16001614161032181611E49BA
:1052E0008430FFF7E5FAB0B91C4C012211032046C7
:1052F000FBF762FB1AA210AB07CA83E807000A2279
:1053000010A91A48FFF700FB4FF0010230B151031A
:105310002046FBF751FBFDF781F8FCE74FF4804195
:105320002046FBF749FB402211A16846FAF779FFB6
:105330001F4B3E2269460D48FFF73BFC20B9012276
:10534000D1032046FBF738FB0848FFF79DFAE2E758
:10535000002C0140E800002006000020000C024064
:105360004C6F67322E63737600000000A01100209E
:10537000547261636B696E672D4C6F6720766F6D39
:105380002031372E30312E323031393B3B3B0A2031
:10539000446174652F54696D653B4C6F636174693A
:1053A0006F6E3B54656D703B4E6F74650A00000074
:1053B00000000020F0B50B30154D20F0070100244F
:1053C000144A0FE003688B420BD38B4205D95E1A57
:1053D00043184768C3E9006700E04368136002C0F0
:1053E00004E0021D10680028ECD12046002802D1FC
:1053F000286808B10020F0BD064A07481060074A37
:10540000121A22F00702C0E9002401202860D7E721
:10541000480000204400002064280020602A00206A
:10542000002A05D011F8013B00F8013B521EF9D1CA
:10543000704700005FFA81F100F8011B521EFBD19A
:10544000704770B50446006B0D460026A8420FD089
:10545000204600F03FF906000AD1607801232A4671
:1054600004F13401FFF7E8F908B1751E0126256340
:10547000304670BD2DE9F047022617460D4604461A
:1054800002297DD3A069A8427AD920784FF001097A
:10549000012804D0022840D003287AD154E0A18901
:1054A00005EB5508B8FBF1F0616A01442046FFF7AF
:1054B000C8FF06006DD1A189B8FBF1F201FB128093
:1054C0002044343008F10108E90704D00178FAB229
:1054D00062F31F1100E03946017084F80390A1893E
:1054E000B8FBF1F0616A01442046FFF7AAFF06000D
:1054F0004FD1A189B8FBF1F201FB12802044343076
:10550000E90702D0C7F3071105E00178C7F30322CA
:1055100001F0F0011143017039E0A089616A40088F
:10552000B5FBF0F001442046FFF78BFF060030D1B9
:10553000A1896800B0FBF1F201FB12002044B9B26E
:10554000343000F07FF822E0A089616A8008B5FB62
:10555000F0F001442046FFF774FF060019D1A0893E
:10556000AD00B5FBF0F100FB115020443430FFF7E3
:105570008AFE67F31B000146A089B5FBF0F200E04C
:1055800007E000FB12502044343000F053F884F858
:1055900003903046BDE8F0872DE9F04105681346D9
:1055A0000E46074602292DD3A869B0422AD93BB13D
:1055B0004FF0FF3219462846FFF75CFF00281FD145
:1055C00031463846FFF778FD040018D0012C19D079
:1055D000601C19D0002231462846FFF74BFF0028F7
:1055E0000ED1D5E90510821E914205D2491C696190
:1055F000297941F0010129712646B042E0D8002006
:10560000BDE8F0810220FBE70120F9E770B50C4608
:105610000646154691B204F11A0000F013F83078EE
:10562000032806D1290C04F11400BDE8704000F0F5
:1056300009B870BD0170090A4170090A8170090A30
:10564000C17070470170090A4170704770B5044617
:1056500000F040F8050036D1207803282CD12079BD
:10566000012829D104F13400A28900210646FFF760
:10567000E1FE4AF6552104F23220FFF7E3FF134919
:105680003046FFF7D7FF124904F50670FFF7D2FF47
:1056900004F507706169FFF7CDFF04F50870216913
:1056A000FFF7C8FF226A0123521C2263607831464B
:1056B000FFF7DCF800202071002260781146FFF728
:1056C000ADF800B10125284670BD0000525261417D
:1056D000727241612DE9F0410446C0780027F8B1AB
:1056E000256B04F13401607801232A468846FFF7D0
:1056F000BDF808B1012713E00020E070606AE1699D
:10570000281A88420CD2A67808E0E06901230544F3
:1057100060782A464146FFF7A9F8761E022EF4D299
:105720003846BDE8F08170B50D4604000CD0206805
:1057300050B1017841B1C188A288914204D140782A
:10574000FFF788F8C00703D000202860092070BD4B
:1057500020682860002070BDFD2B0008932C0008F5
:105760006D2C0008992C00081D2C0008000000007A
:105770000000000001020304060708090000000001
:1057800001020304435545414141414345454549D3
:10579000494941414592924F4F4F5555594F554FA9
:1057A0009C4F9E9F41494F55A5A5A6A7A8A9AAAB66
:1057B000ACADAEAFB0B1B2B3B4414141B8B9BABB10
:1057C000BCBDBEBFC0C1C2C3C4C54141C8C9CACBAC
:1057D000CCCDCECFD1D145454549494949D9DADB70
:1057E000DCDD49DF4FE14F4F4F4FE6E8E8555555B7
:1057F0005959EEEFF0F1F2F3F4F5F6F7F8F9FAFB98
:10580000FCFDFEFF0100040010004000000100024A
:105810000000010002000400080010002000000049
:105820004344430044580008000000204C0000009E
:10583000BA420008905800084C000020142E0000C6
:10584000CA42000800000000010000000000000043
:105850000100000010000000000000000024F4001F
:1058600000000000000000002058000802000000B6
:10587000C32E0008652E0008412E0008F92F0008ED
:10588000B33000080000000000000000000000002D
:040000050800018965
:00000001FF
